:020000040800F2
:10000000500B0020A10100088D2700087125000871
:1000100089270008AD020008AD300008000000008C
:10002000000000000000000000000000932700080E
:10003000C102000800000000912700089527000871
:10004000BB010008BB010008BB010008BB010008A0
:10005000BB010008BB010008BB010008BB01000890
:10006000BB010008BB010008BB010008BB01000880
:10007000BB010008BB010008BB010008BB01000870
:10008000BB010008BB010008BB010008BB01000860
:10009000BB010008BB010008BB010008BB01000850
:1000A000BB010008BB010008BB010008BB01000840
:1000B00065280008BB010008BB010008BB0100085F
:1000C000BB010008BB010008BB010008BB01000820
:1000D000BB0100087D3000088D3000089D3000080D
:1000E000BB010008BB010008BB010008BB01000800
:1000F000BB010008BB010008BB010008BB010008F0
:10010000BB010008BB010008BB010008BB010008DF
:10011000BB010008BB010008BB010008BB010008CF
:10012000BB010008BB010008BB010008BB010008BF
:10013000BB010008BB010008BB010008BB010008AF
:10014000B1020008BB010008BB010008BB010008A8
:10015000BB010008BB010008BB010008BB0100088F
:10016000BB010008BB010008BB010008BB0100087F
:10017000BB010008BB010008BB0100080000000033
:10018000BB010008BB010008DFF810D000F07CF8CC
:10019000004800470D360008AFF30080500B0020E8
:1001A0000648804706480047FEE7FEE7FEE7FEE711
:1001B000FEE7FEE7FEE7FEE7FEE7FEE75128000860
:1001C000890100082DE9F05F0546002092469B4614
:1001D00088460646814640241BE02846414647465D
:1001E000224600F041F853465A46C01A914110D3B6
:1001F00011461846224600F028F82D1A67EB010830
:100200004F4622460120002100F01FF817EB00099D
:100210004E41201EA4F10104DFDC484631462A4647
:100220004346BDE8F09FD2B201E000F8012B491E21
:10023000FBD270470022F6E710B513460A46044683
:100240001946FFF7F0FF204610BD202A04DB203AB4
:1002500000FA02F1002070479140C2F1200320FA19
:1002600003F3194390407047202A04DB203A21FA17
:1002700002F00021704721FA02F3D040C2F12002BF
:100280009140084319467047064C074D06E0E06868
:1002900040F0010394E8070098471034AC42F6D3CD
:1002A000FFF776FF583700087837000800BFFEE7F1
:1002B00010B5024800F018FA10BD000084040020B8
:1002C000704772B600BFFEE710B5024692F82030C4
:1002D000012B01D0022B06D1106840690843146835
:1002E0006061002010BD506A40F4802050620120FF
:1002F000F8E7F0B504460D461E4694F820702068D5
:100300008368A86800B900E000BF012F01D0022F68
:100310007CD103F0806030B903F0006018B903F0BD
:100320008050002873D0C3F30161022905D9606AA7
:1003300040F4000060620120F0BD01208840306080
:10034000A86860B9B5F800C0E86840EA4C5C20686D
:1003500000F5C07000EB0110C0F800C00FE0D5E957
:1003600001C040EACC00D5F80CC040EA0C00D4F83B
:1003700000C00CF5C07C0CEB011CCCF80000D5F8DB
:1003800010C0206800F5C07000EB0110C0F804C078
:10039000287D01280ED1206800F5C07000EB011007
:1003A000406840F4807C206800F5C07000EB0110CC
:1003B000C0F804C0D079000692F806C040EA0C40AC
:1003C00092F805C040EA0C2C10794CEA000C206829
:1003D00000F5C07000EB0110C0F80CC0D07800062A
:1003E00092F802C040EA0C4092F801C040EA0C20AA
:1003F00092F800C040EA0C00D4F800C00CF5C07CB4
:100400000CEB011CCCF80800206801E016E00FE0BE
:1004100000F5C07000EB0110006840F0010C20688E
:1004200000F5C07000EB0110C0F800C0002083E7A9
:10043000606A40F40010606201207DE7606A40F469
:1004400080206062012077E7F0B504460A46216803
:1004500094F82050012D01D0022D7ED1424901F5A2
:100460000071086840F001000860086820F47C50C2
:1004700008600868566A40EA06200860107D00F0AF
:100480001F06012000FA06F3C8699843C861A1F568
:100490000071D069C8B9D1F80C029843C1F80C02B8
:1004A000908880B2968940EA064601F51070576937
:1004B00040F83760108880B2168940EA064601F598
:1004C0001070576900EBC7004660D069012819D148
:1004D000D1F80C021843C1F80C02908880B216883B
:1004E00040EA064601F51070576940F83760908978
:1004F00080B2168940EA064601F51070576900EB94
:10050000C7004660906928B9D1F804029843C1F841
:10051000040204E0D1F804021843C1F8040210698F
:1005200028B9D1F814029843C1F8140204E0D1F8B4
:1005300014021843C1F81402106A012804D1D1F83A
:100540001C021843C1F81C02D1F8000220F001007F
:10055000C1F800020020F0BDFFE7606A40F480208F
:1005600060620120F7E7000000640040704770B54A
:10057000044694F82050012D01D0022D7DD151B9AF
:100580002068C06800F0030080B9606A40F4001081
:100590006062012070BD2068006900F0030028B986
:1005A000606A40F4001060620120F3E7206800F503
:1005B000D87000EB0110006800F0040090609068B3
:1005C00040B9206800F5D87000EB01100068400DBC
:1005D000106007E0206800F5D87000EB011000689B
:1005E000C0085060206800F5D87000EB011000686A
:1005F00000F00200D060206800F5D87000EB011018
:10060000406800F00F001061206800F5D87000EB22
:100610000110406800F47F40000A9061206800F5F6
:10062000D87000EB01104068000C5061206800F5A4
:10063000D87000EB011080681870206800F5D87041
:1006400000EB0110806800F47F40000A58702068B9
:1006500000F5D87000EB0110806800F47F00000CFA
:100660009870206800F5D87000EB01108068000ECB
:10067000D870206800F5D87000E02FE000EB011082
:10068000C0681871206800F5D87000EB0110C068D0
:1006900000F47F40000A5871206800F5D87000EB24
:1006A0000110C06800F47F00000C9871206800F50C
:1006B000D87000EB0110C068000ED87131B9206805
:1006C000C06840F020002668F06005E020680069FE
:1006D00040F020002668306100205BE7606A40F44B
:1006E00080206062012055E72DE9F05F0446002577
:1006F000206846692068D0F80490206887682068E0
:10070000D0F80CA02068D0F810B02068D0F818807D
:1007100006F00100002855D007F00100C0B101200B
:100720002168886007F0020018B1204600F08FFAB7
:100730000EE007F0040010B145F4006508E007F092
:10074000080010B145F4805502E0204600F07EFA22
:1007500007F48070C8B14FF480702168886007F496
:10076000007018B1204600F074FA0EE007F48060C3
:1007700010B145F4005508E007F4006010B145F4ED
:10078000804502E0204600F063FA07F48030C8B1EB
:100790004FF480302168886007F4003018B120469B
:1007A00000F059FA0EE007F4802010B145F400453E
:1007B00008E007F4002010B145F4803502E020463F
:1007C00000F048FA06F0080038B10AF0100020B135
:1007D00045F4007510202168C86006F0040040B19F
:1007E0000AF0080028B108202168C860204600F0FF
:1007F000B9F906F0020038B12068C06800F00300C3
:1008000010B1204600F0B0F906F0400038B10BF00E
:10081000100020B145F4806510202168086106F0C1
:10082000200040B10BF0080028B1082021680861C1
:10083000204600F0D9F906F0100038B120680069B0
:1008400000F0030010B1204600F0CFF906F40030AC
:1008500040B109F0100028B11020216848602046FE
:1008600000F0C4F906F4803040B109F0080028B166
:10087000082021684860204600F0EEF906F40040A8
:1008800088B309F0040078B306F4807020B108F052
:10089000010008B145F0010506F4007020B108F030
:1008A000020008B145F0020506F4806020B108F0AE
:1008B000040008B145F0040506F40060A0B108F09A
:1008C000700088B108F07000402817D006DC1028AE
:1008D0000BD020280CD0302819D10CE0502810D093
:1008E000602814D110E01DE019E045F008050FE084
:1008F00045F010050CE045F0200509E045F0400505
:1009000006E045F0800503E045F4807500E000BF97
:1009100000BF2068806920F0700021688861042091
:10092000216848602DB1606A284360622046FFF765
:100930001DFEBDE8F09F70B504460CB9012070BDE6
:1009400094F8200010B9204600F0B0F82068006844
:1009500040F001002168086000F0F8FA05460DE05B
:1009600000F0F4FA401B0A2808D9606A40F400300D
:100970006062052084F820000120E0E720684068DC
:1009800000F001000028EBD02068006820F0020091
:100990002168086000F0DAFA05460DE000F0D6FAAA
:1009A000401B0A2808D9606A40F4003060620520C4
:1009B00084F820000120C2E72068406800F00200AF
:1009C0000028EBD1207E012806D12068006840F085
:1009D00080002168086005E02068006820F0800041
:1009E00021680860607E012806D12068006840F018
:1009F00040002168086005E02068006820F04000A1
:100A000021680860A07E012806D12068006840F0B7
:100A100020002168086005E02068006820F02000C0
:100A200021680860E07E012806D12068006820F077
:100A300010002168086005E02068006840F01000A0
:100A400021680860207F012806D12068006840F0F6
:100A500008002168086005E02068006820F00800B0
:100A600021680860607F012806D12068006840F096
:100A700004002168086005E02068006820F0040098
:100A800021680860D4E902010843216908436169CB
:100A900008436168491E08432168C86100206062FC
:100AA000012084F82000002049E7000010B586B03E
:100AB0000446142101A8FFF7BDFB2749206888429E
:100AC00047D100BF002000902448006840F08060BB
:100AD000224908600846006800F08060009000BF6E
:100AE00000BF00BF002000900846006840F0007082
:100AF00008600846006800F00070009000BF00BF6A
:100B000000BF0020009015481038006840F0020037
:100B10001249103908600846006800F00200009091
:100B200000BF00BF4FF4405001900220029000200F
:100B30000390032004900920059001A9084800F0C3
:100B40000BF900221146402000F08AFA402000F004
:100B500077FA06B010BD000000680040403802403F
:100B6000000402407047000010B5044618480068B1
:100B70001849884224D1184B184A00211448FFF71D
:100B8000F6FC16480068A0F2012030B1012805D01B
:100B9000022804D0032811D102E000BF00BF00BF2B
:100BA0000E480078401E0E4908700E490C4A127813
:100BB00001EB4210214602F0E1FC00E000BF00BF63
:100BC0002068406940F002002168486110BD0000C3
:100BD0008404002000680040080000201801002064
:100BE000140000205800002070477047704770B50F
:100BF000044694F82000012822D1022084F8200025
:100C00002068006820F001002168086000F09EF96B
:100C100005460DE000F09AF9401B0A2808D9606AE1
:100C200040F400306062052084F82000012070BD8F
:100C30002068406800F001000028EBD16062F6E710
:100C4000606A40F4002060620120F0E7704770475E
:100C50007047704770477047704770B50446A56D80
:100C600000F074F9064694F83500022808D0802078
:100C7000606500BF002084F8340000BF012070BD13
:100C80002068006820F0160021680860206840692C
:100C900020F0800021684861206C08B9A06C28B160
:100CA0002068006820F0080021680860206800685B
:100CB00020F001002168086010E000F047F9801B77
:100CC00005280BD920206065032084F8350000BF7B
:100CD000002084F8340000BF0320D0E720680068BB
:100CE00000F001000028E8D194F85C103F20884013
:100CF000A860012084F8350000BF002084F834008B
:100D000000BF00BFBBE7014691F83500022803D0C1
:100D10008020486501207047052081F8350008686B
:100D2000006820F001000A6810600020F3E700006E
:100D300070B5044600F00AF906462546681C10B155
:100D400004480078054400BF00F000F9801BA84269
:100D5000FAD370BD4C000020F8B502460B460025C2
:100D6000002400200021D6E0012606FA01F51E68C5
:100D700006EA0504AC4274D11E7906F00306012E82
:100D800004D01E7906F00306022E13D190684F009E
:100D90000326BE40B0434F00DE68BE403043906043
:100DA000506801268E40B0431E79C6F300168E406F
:100DB000304350601E7906F00306032E09D0D06838
:100DC0004F000326BE40B0434F009E68BE403043F4
:100DD000D0601E7906F00306022E13D1CF0802F16F
:100DE000200656F827004E07F70E0F26BE40B043E8
:100DF0004F07FF0E1E69BE403043CF0802F12006A8
:100E000046F8270010684F000326BE40B0431E7905
:100E100006F003064F00BE40304310605E6806F4E3
:100E20004036002E76D000BF002600963C4E366835
:100E300046F480463A4F3E603E46366806F48046A9
:100E4000009600BF00BF374E8F0856F827008E0768
:100E5000370F0F26BE40B043334EB24202D10026B8
:100E600024E057E0314EB24201D101261EE0304E5F
:100E7000B24201D1022619E02E4EB24201D1032620
:100E800014E02D4EB24201D104260FE02B4EB242A7
:100E900001D105260AE02A4EB24201D1062605E01C
:100EA000284EB24201D1072600E008268F073F0FE7
:100EB000BE4030431B4E8F0846F82700224E306854
:100EC000A0435E6806F4801606B120431E4E3060D3
:100ED000361D3068A0435E6806F4001606B1204354
:100EE000194E361D3060184E361F3068A0435E68BC
:100EF00006F4003606B12043134E361F3060361F0D
:100F00003068A0435E6806F4803606B120430E4E7A
:100F1000083E3060491C1029FFF426AFF8BD0000E0
:100F200044380240083801400000024000040240FA
:100F300000080240000C0240001002400014024071
:100F400000180240001C0240083C014001480068B3
:100F500070470000440000200348006803490978F6
:100F60000844014908607047440000204C000020FC
:100F700010B50D48006840F400700B490860084641
:100F8000006840F4806008600846006840F48070A3
:100F90000860032000F0A2F80F2000F007F800F02E
:100FA0002BF8002010BD0000003C024070B5044644
:100FB0000E4800784FF47A71B1FBF0F00C490968E3
:100FC000B1FBF0F5284600F02BFC08B1012070BD04
:100FD000102C07D200222146501E00F041F805488F
:100FE000046001E00120F2E70020F0E74C0000205F
:100FF000500000204800002008B500BF00200090ED
:101000000E48006840F480400C49086008460068BB
:1010100000F48040009000BF00BF00BF002000909F
:10102000081F006840F08050091F086008460068EB
:1010300000F08050009000BF00BF08BD443802405F
:1010400001460846002809DB00F01F0301229A40F0
:1010500043099B0003F1E023C3F8002100BF704760
:101060002DE9F05F80460D461646002702F030F865
:10107000074639462A46334601F00700C0F1070A01
:10108000BAF1040F02D94FF0040A01E0C0F1070AD7
:10109000D14600F1040ABAF1070F02D24FF0000A5C
:1010A00001E0A0F1030AD4464FF0010A0AFA09FA56
:1010B000AAF1010A0AEA020A0AFA0CFA4FF0010B35
:1010C0000BFA0CFBABF1010B0BEA030B4AEA0B0426
:1010D0002146404602F004F8BDE8F09F00BF00F052
:1010E0000702064B19684FF6FF031940044B0B43E8
:1010F00043EA0221014B196000BF70470CED00E08C
:101100000000FA0570B504460D460CB9012070BD0B
:101110005848006800F00700A84209D255490D70F0
:101120000846006800F00700A84201D00120EEE761
:10113000207800F0020002281DD1207800F0040081
:10114000042805D14C48006840F4E0504A49086042
:10115000207800F00800082805D14748006840F4CE
:101160006040454908604448006820F0F000A168EC
:10117000084341490860207800F00100A8B3606886
:10118000012807D13C4808380068C0F34040B8B98E
:101190000120BCE76068022802D06068032807D1FC
:1011A000354808380068C0F3406048B90120AEE710
:1011B000314808380068C0F3400008B90120A6E7AC
:1011C0002D48006820F00300616808432A49086040
:1011D000FFF7BCFE064609E0FFF7B8FE801B41F2B0
:1011E0008831884202D9032091E707E0224800684D
:1011F00000F00C006168B0EB810FEDD11D48006874
:1012000000F00700A84209D91A490D700846006885
:1012100000F00700A84201D0012078E7207800F014
:101220000400042807D11448006820F4E050E16865
:10123000084311490860207800F00800082808D108
:101240000D48006820F46040216940EAC1000A4965
:10125000086000F03FF808490968C1F30311074A24
:10126000515CC8400649086006480068FFF79EFECA
:1012700000204CE7003C024008380240403700089C
:10128000500000204800002001480068704700001E
:101290005000002000B5FFF7F7FF04490968C1F3CB
:1012A0008221034A515CC84000BD0000083802405A
:1012B0005037000800B5FFF7E7FF04490968C1F39C
:1012C0004231034A515CC84000BD0000083802406A
:1012D000503700082DE9F047002400250026A146DC
:1012E0002548006800F00C0020B1042805D008282B
:1012F0003AD105E0DFF8849039E0DFF8849036E0F9
:101300001D48001F006800F03F041B48001F0068D4
:1013100000F4800078B11A481749091F0968C1F321
:101320008811A0FB01700146224600233846FEF7D3
:1013300049FF05460EE011480F49091F0968C1F32E
:101340008811A0FB01700146224600233846FEF7B3
:1013500039FF05460848001F0068C0F30140401CE3
:101360004600B5FBF6F902E0DFF8109000BF00BFC1
:101370004846BDE8F0870000083802400024F40029
:1013800000127A00F8B504460CB90120F8BD2078A7
:1013900000F00100002874D0F948006800F00C004B
:1013A00004280DD0F648006800F00C00082813D17E
:1013B000F348001F006800F48000B0F5800F0BD1E7
:1013C000EF4808380068C0F34040002859D06068F2
:1013D000002856D10120D9E700BF6068B0F5803FF2
:1013E00008D1E7480838006840F48030E4490839FB
:1013F00008601EE06068B0F5A02F0DD1E048083805
:10140000006840F48020DE4908390860084600681A
:1014100040F4803008600CE0D9480838006820F4B7
:101420008030D749083908600846006820F48020D9
:10143000086000BF606890B1FFF788FD054606E0D0
:10144000FFF784FD401B642801D903209EE7CC48A8
:1014500008380068C0F340400028F1D011E0FFF7E1
:1014600075FD054606E0FFF771FD401B642801D9B4
:1014700003208BE7C24808380068C0F340400028CA
:10148000F1D1207800F0020002285FD1BC4800684A
:1014900000F00C0058B1BA48006800F00C000828B1
:1014A0001CD1B748001F006800F48000B0B9B448F0
:1014B00008380068C0F3400020B1E068012801D07E
:1014C000012063E7AE480838006820F0F800216981
:1014D00040EAC100AA490839086037E0E06800B373
:1014E0000120A8490860FFF731FD054606E0FFF737
:1014F0002DFD401B022801D9032047E7A0480838EA
:101500000068C0F340000028F1D09D48083800680A
:1015100020F0F800216940EAC100994908390860C3
:1015200014E0002097490860FFF710FD054606E02B
:10153000FFF70CFD401B022801D9032026E7904845
:1015400008380068C0F340000028F1D1207800F08E
:10155000080008282CD16069A8B101208A490860D8
:10156000FFF7F4FC054606E0FFF7F0FC401B0228FD
:1015700001D903200AE782486C300068C0F34000BC
:101580000028F1D014E000207F490860FFF7DEFC5E
:10159000054606E0FFF7DAFC401B022801D90320CC
:1015A000F4E677486C300068C0F340000028F1D1C1
:1015B000207800F00400042870D1002770483830EB
:1015C000006800F0805090B900BF002000906C4887
:1015D0003830006840F0805069493831086008466A
:1015E000006800F08050009000BF00BF01276748EE
:1015F000006800F48070B0B96448006840F48070FE
:1016000062490860FFF7A2FC054606E0FFF79EFC72
:10161000401B022801D90320B8E65C48006800F4AA
:1016200080700028F2D000BFA068012808D154487B
:101630006830006840F001005149683108601DE0E1
:10164000A06805280DD14E486830006840F00400BD
:101650004B49683108600846006840F001000860A6
:101660000CE047486830006820F0010044496831C8
:1016700008600846006820F00400086000BFA06809
:10168000A8B1FFF763FC054609E0FFF75FFC401BCC
:1016900041F28831884202D9032077E626E03848B3
:1016A00068300068C0F340000028EED013E0FFF778
:1016B0004DFC054608E0FFF749FC401B41F288312C
:1016C000884201D9032061E62D4868300068C0F3E4
:1016D00040000028EFD1012F07D129483830006899
:1016E00020F0805026493831086000BFA0690028EA
:1016F00045D02348006800F00C0008285DD0A069A0
:10170000022845D100201F490866FFF71FFC054647
:1017100006E0FFF71BFC401B022801D9032035E639
:10172000174808380068C0F340600028F1D1D4E9B8
:1017300007010843616A40EA81110122A06AC2EBF5
:10174000500041EA00412C20005D41EA00600C4954
:10175000091F086001200B490866FFF7F7FB0546E3
:1017600006E0FFF7F3FB401B022801D903200DE63A
:10177000034808380068C0F340600028F1D049E011
:101780000838024000004742800E47420070004087
:10179000002021490866FFF7D9FB054606E0FFF760
:1017A000D5FB401B022801D90320EFE51B48006848
:1017B000C0F340600028F2D12CE0A069012800D1DC
:1017C000E4E51648001D0668A069012820D006F44B
:1017D0008001E06981421BD106F03F01206A81420D
:1017E00016D147F6C0703040616AB0EB811F0FD14F
:1017F00006F440310122A06AC2EB5000B1EB004F69
:1018000006D106F070612C20005DB1EB006F01D0B5
:101810000120BBE50020B9E5000047420038024046
:1018200070B504462546681EB0F1807F01D30120C3
:101830000FE0681E4FF0E02148610F214FF0FF30AC
:1018400001F04EFC00204FF0E02188610720086184
:10185000002070BD7047704730B502460B4600BF90
:1018600092F83C00012801D1022030BD012082F80D
:101870003C0000BF022082F83D00106844681068F8
:10188000816824F070041868044310684460184D9F
:101890001068A8421BD01068B0F1804F17D0154DCA
:1018A0001068A84213D0144D1068A8420FD0134DF1
:1018B0001068A8420BD0124D1068A84207D0114DF5
:1018C0001068A84203D0104D1068A84205D121F03D
:1018D00080015868014310688160012082F83D0052
:1018E00000BF002082F83C0000BF00BFBDE7000041
:1018F000000001400004004000080040000C0040CF
:1019000000040140004001400018004010B50446AA
:101910000CB9012010BD94F83D0028B9002084F8CE
:101920003C00204600F026F8022084F83D00211DEE
:10193000206800F09FFF012084F8460000BF84F873
:101940003E0001213F200155402001554120015515
:1019500000BF00BF012084F842004320015544200D
:1019600001554520015500BF012084F83D000020AD
:10197000D0E7000038B504462068B0F1804F17D199
:1019800000BF002000900B48006840F001000949AA
:1019900008600846006800F00100009000BF00BF2A
:1019A000002211461C20FFF75BFB1C20FFF748FBC1
:1019B00038BD0000403802402DE9F04104460D4694
:1019C000002700BF94F83C00012802D10220BDE8A6
:1019D000F081012084F83C0000BF022084F83D0023
:1019E0002068866826F0770626F47F4620688660A1
:1019F0002868502833D00CDC202850D004DC002884
:101A00004BD0102851D149E0302849D040284CD142
:101A100039E060282DD0702807D0B0F5805F03D062
:101A2000B0F5005F41D10DE041E0D5E902136A68ED
:101A3000206800F08BFF2068866846F077062068F3
:101A4000866034E0D5E902136A68206800F07EFF02
:101A50002068806840F480402168886027E0EA6858
:101A60006968206801F062F85021206800F079FF71
:101A70001DE0EA686968206801F06BF86021206861
:101A800000F06FFF13E0EA686968206801F04EF823
:101A90004021206800F065FF09E000BF00BF00BFE3
:101AA0002968206800F05DFF01E0012700BF00BF4A
:101AB000012084F83D0000BF002084F83C0000BFF6
:101AC000384684E7704710B5044620680069C0F3C3
:101AD0004000D8B12068C068C0F34000B0B16FF0DA
:101AE000020021680861012020772068806900F0E9
:101AF000030018B12046FFF7E5FF05E0204600F09F
:101B0000DBF8204600F08FF900202077206800697C
:101B1000C0F38000D8B12068C068C0F38000B0B1C5
:101B20006FF0040021680861022020772068806936
:101B300000F4407018B12046FFF7C4FF05E02046CE
:101B400000F0BAF8204600F06EF9002020772068F7
:101B50000069C0F3C000D8B12068C068C0F3C000FD
:101B6000B0B16FF008002168086104202077206878
:101B7000C06900F0030018B12046FFF7A3FF05E09D
:101B8000204600F099F8204600F04DF9002020771B
:101B900020680069C0F30010D8B12068C068C0F3A5
:101BA0000010B0B16FF010002168086108202077A4
:101BB0002068C06900F4407018B12046FFF782FF2A
:101BC00005E0204600F078F8204600F02CF90020CF
:101BD00020772068006900F0010058B12068C068D3
:101BE00000F0010030B16FF001002168086120466B
:101BF00000F01AF920680069C0F3C01058B12068DD
:101C0000C068C0F3C01030B16FF080002168086177
:101C10002046FFF71FFE20680069C0F3801058B10E
:101C20002068C068C0F3801030B16FF040002168B8
:101C30000861204600F0F9F820680069C0F3401000
:101C400058B12068C068C0F3401030B16FF0200078
:101C5000216808612046FFF7FEFD10BD10B586B073
:101C60000446142101A8FEF7E5FA2068B0F1804F80
:101C70001CD100BF002000900D48006840F001001A
:101C80000B4908600846006800F00100009000BFA2
:101C900000BF0120019002200290002003900490D8
:101CA0000120059001A90348FFF756F806B010BDC2
:101CB000303802400000024070472DE9F0410446F0
:101CC0000D461646002700BF94F83C00012802D1BB
:101CD0000220BDE8F081012084F83C0000BF36B14D
:101CE000042E1BD0082E31D00C2E5ED145E02946A3
:101CF000206800F03FFE2068806940F008002168FD
:101D000088612068806920F004002168886120686B
:101D10008069296908432168886148E0294620686C
:101D200000F060FE2068806940F4006021688861EE
:101D30002068806920F4806021688861206880695B
:101D4000296940EA01202168886130E0294620683D
:101D500000F086FE2068C06940F008002168C86174
:101D60002068C06920F004002168C8612068C0694B
:101D7000296908432168C86119E02946206800F0F4
:101D8000ABFE2068C06940F400602168C86120682B
:101D9000C06920F480602168C8612068C069296931
:101DA00040EA01202168C86101E0012700BF00BFAF
:101DB00000BF002084F83C0000BF384689E710B51A
:101DC00004460CB9012010BD94F83D0028B900204C
:101DD00084F83C00204600F025F8022084F83D00FD
:101DE000211D206800F046FD012084F8460000BF58
:101DF00084F83E0001213F2001554020015541203B
:101E0000015500BF00BF012084F842004320015566
:101E1000442001554520015500BF012084F83D00B4
:101E20000020D0E770477047704770477047704791
:101E30002DE9F84F0446206805682068C6682068C8
:101E400047694FF00009CA4605F00F09B9F1000FC4
:101E50000AD105F0200038B106F0200020B120465C
:101E600000F0DBFEBDE8F88FB9F1000F7CD007F081
:101E7000010018B906F49070002875D005F0010033
:101E800030B106F4807018B1206C40F0010020647D
:101E900005F0040030B107F0010018B1206C40F0EB
:101EA0000200206405F0020030B107F0010018B113
:101EB000206C40F00400206405F0080048B106F0F2
:101EC000200010B907F0010018B1206C40F00800A4
:101ED0002064206C002846D005F0200028B106F0D0
:101EE000200010B1204600F098FE20684069C0F341
:101EF000801A206C00F0080010B9BAF1000F2DD044
:101F0000204600F044FE2068406900F04000402870
:101F100020D100BF00BF2168143151E8001F21F01B
:101F200040002168143141E80002002AF3D100BFCB
:101F3000A06B50B17548A16B0865A06BFEF7E3FE7E
:101F400088B1A06B016D88470DE02046FFF76FFF59
:101F500009E009E02046FFF76AFF04E02046FFF7AA
:101F600066FF002020647DE7206B012876D105F014
:101F70001000002872D006F010000028FAD000BF30
:101F80000020009020680068009020684068009061
:101F900000BF00BF2068406900F0400040285ED1CB
:101FA000A06B006840681FFA80F8B8F1000F54D0A9
:101FB000A08D404551DDA4F82E80A06BC069B0F51E
:101FC000807F43D000BF00BF21680C3151E8001F63
:101FD00021F4807021680C3141E80002002AF3D11D
:101FE00000BF00BF00BF2168143151E8001F21F07D
:101FF00001002168143141E80002002AF3D100BF3A
:1020000000BF00BF2168143151E8001F21F04000DB
:102010002168143141E80002002AF3D100BF2020DA
:1020200084F83E000020206300BF00BF21680C310F
:1020300051E8001F21F0100021680C3141E8000236
:10204000002AF3D100BFA06BFEF707FEA08DE28D42
:10205000801A81B22046FFF7E9FE03E740E0A08D39
:10206000E18D401A1FFA80F8E08DC0B3B8F1000F7F
:1020700035D000BF00BF21680C3151E8001F21F4AA
:10208000907021680C3141E80002002AF3D100BFB2
:1020900000BF00BF2168143151E8001F21F001008A
:1020A0002168143141E80002002AF3D100BF20204A
:1020B00084F83E000020206300BF00BF21680C317F
:1020C00051E8001F21F0100021680C3141E80002A6
:1020D000002AF3D100BF41462046FFF7A7FEC1E624
:1020E00005F0800030B106F0800018B1204600F005
:1020F0004CFFB7E605F0400030B106F0400018B1E3
:10210000204600F07AFDADE600BFABE67B2B000871
:1021100010B504460CB9012010BDA06900B100E063
:1021200000BF94F83D0028B9002084F83C00204608
:1021300000F028F8242084F83D002068C06820F4CE
:1021400000502168C860204600F0E4FD2068006966
:1021500020F49040216808612068406920F02A003E
:10216000216848612068C06840F400502168C86058
:1021700000202064202084F83D0084F83E000020E8
:10218000CAE7000010B586B00446142101A8FEF786
:1021900051F85F492068884239D100BF0020009083
:1021A0005C48006840F010005A4908600846006822
:1021B00000F01000009000BF00BF00BF00200090A2
:1021C00054481438006840F001005249143908603E
:1021D0000846006800F00100009000BF00BF4FF407
:1021E000C060019002200290002003900320049020
:1021F0000720059001A94848FEF7AEFD00221146D0
:102200002520FEF72DFF2520FEF71AFF7DE043492C
:10221000206888423AD100BF002000903D48001F4E
:10222000006840F400303B49091F08600846006818
:1022300000F40030009000BF00BF00BF00200090FD
:1022400034481438006840F00100324914390860FD
:102250000846006800F00100009000BF00BF0C209D
:102260000190022002900020039003200490072098
:10227000059001A92848FEF76FFD0022114626208F
:10228000FEF7EEFE2620FEF7DBFE3EE02449206846
:1022900088423AD100BF002000901E48001F00680D
:1022A00040F480201B49091F08600846006800F4BC
:1022B0008020009000BF00BF00BF002000901548A4
:1022C0001438006840F002001249143908600846CA
:1022D000006800F00200009000BF00BF4FF44060B3
:1022E0000190022002900020039003200490072018
:1022F000059001A90B48FEF72FFD0022114627206B
:10230000FEF7AEFE2720FEF79BFE06B010BD0000D4
:1023100000100140443802400000024000440040E8
:10232000004800400004024070B504460D461646C1
:1023300094F83E00202816D105B10EB9012070BDD9
:1023400000BF94F83C00012801D10220F7E70120EA
:1023500084F83C0000BF0020206332462946204616
:1023600000F0EEFDEBE70220E9E7000010B50446BF
:102370004049206888423BD13F48008800F4004033
:1023800088BB3D48008800F4804070B13B4800782D
:102390000A2803D000203849088024E03648008805
:1023A00040F40040344908801DE0344800780D288E
:1023B00006D13148008840F480402F49088012E05F
:1023C0002E4800782C490988C1F30D012C4A50543D
:1023D00029480088401C2849088008460088C728EA
:1023E00001DD00200880012224492648FFF79CFFD8
:1023F0002549206888423BD12448008800F40040E9
:1024000088BB2248008800F4804070B120480078E2
:102410000A2803D000201D49088024E01B480088BA
:1024200040F40040194908801DE0194800780D2843
:1024300006D11648008840F480401449088012E014
:102440001348007811490988C1F30D01114A50540D
:102450000E480088401C0D49088008460088C7289F
:1024600001DD00200880012209490B48FFF75CFFCD
:1024700010BD0000004400403C0000203E00002051
:10248000F4040020C806002000480040400000205E
:1024900042000020BC0500200C0700202DE9F84F69
:1024A00004460E46174699464FF0000A94F83D0040
:1024B00020285AD106B117B90120BDE8F88F00BF16
:1024C00094F83C00012801D10220F6E7012084F8AD
:1024D0003C0000BF00202064212084F83D00FEF76E
:1024E00035FD8246A784E784A068B0F5805F04D1FB
:1024F000206910B90025B04602E035464FF00008CB
:1025000000BF002084F83C0000BF1BE053460022BF
:1025100080212046CDF8009000F067FD08B103202F
:10252000CBE745B9B8F80000C0F30800216848605F
:1025300008F1020803E02878216848606D1CE08CEF
:10254000401EE084E08C0028E0D153460022402168
:102550002046CDF8009000F048FD08B10320ACE71C
:10256000202084F83D000020A7E70220A5E770475F
:1025700000BFFEE710B50F480F4908600320486010
:1025800000210D488160C1604FF4002101614FF4CA
:1025900040114161002101760121417600218176BF
:1025A000C17601774177FEF7C6F908B1FDF789FEDC
:1025B00010BD0000006800408404002008B500BF82
:1025C000002000901D48006840F004001B4908608E
:1025D0000846006800F00400009000BF00BF00BF84
:1025E000002000900846006840F08000086008461F
:1025F000006800F08000009000BF00BF00BF002016
:1026000000900846006840F0010008600846006835
:1026100000F00100009000BF00BF00BF002000904C
:102620000846006840F0020008600846006800F0B4
:102630000200009000BF00BF08BD0000303802401B
:1026400000B58DB0002009900A900B900C90079077
:1026500008901C216846FDF7EDFD4FF080401F49B2
:1026600008605320486000211C48816040F2E73137
:10267000C160002101618161FFF748F908B1FDF7F0
:1026800020FE4FF48050099009A91448FFF794F9EF
:1026900008B1FDF716FE1148FFF791FB08B1FDF7F1
:1026A00010FE00200790089007A90C48FFF7D4F807
:1026B00008B1FDF706FE6020009000200190029016
:1026C0000490002269460548FFF7F7FA08B1FDF7C4
:1026D000F8FD0248FFF7C2FA0DB000BDAC040020BF
:1026E00010B50B480B4908604FF4E13048600021F9
:1026F00008488160C16001610C2141610021816154
:10270000C161FFF705FD08B1FDF7DBFD10BD00005D
:10271000001001408406002010B50B480B490860EA
:102720004FF4E1304860002108488160C1600161D8
:102730000C21416100218161C161FFF7E9FC08B111
:10274000FDF7BFFD10BD000000440040C80600209A
:1027500010B50B480B4908604FF4E1304860002188
:1027600008488160C16001610C21416100218161E3
:10277000C161FFF7CDFC08B1FDF7A3FD10BD00005E
:10278000004800400C07002000BFFEE700BFFEE746
:102790007047704710B5FEF7DFFB10BD00B593B072
:1027A000302107A8FDF746FD142102A8FDF742FDE0
:1027B00000BF002001902448006840F0805022496A
:1027C00008600846006800F08050019000BF00BF1C
:1027D00000BF002001901D48006840F480401B4964
:1027E00008600846006800F48040019000BF00BF08
:1027F000012007900004089002200D9041050E91E1
:1028000004210F91A821109102211191042112910C
:1028100007A8FEF7B7FD08B1FDF753FD0F200290A2
:1028200002200390002004904FF4A05005904FF434
:1028300080500690052102A8FEF764FC08B1FDF760
:1028400040FD13B000BD0000403802400070004061
:102850000348006840F470000149086070470000B8
:1028600088ED00E010B50248FFF72DF910BD00001B
:10287000AC04002010B50268294B98420ED0B0F18C
:10288000804F0BD0274B984208D0274B984205D059
:10289000264B984202D0264B984203D122F0700278
:1028A0004B681A431E4B984220D0B0F1804F1DD088
:1028B0001C4B98421AD01C4B984217D01B4B984285
:1028C00014D01B4B984211D01A4B98420ED01A4B81
:1028D00098420BD0194B984208D0194B984205D01A
:1028E000184B984202D0184B984203D122F4407200
:1028F000CB681A4322F080034C6943EA0402026069
:102900008B68C3620B688362054B984202D0084B08
:10291000984201D10B6903630123436110BD00009C
:10292000000001400004004000080040000C00408E
:1029300000040140004001400044014000480140C3
:1029400000180040001C00400020004030B50C463C
:10295000816821F47F4142EA0325254329438160B0
:1029600030BD0A46816821F0700142F00703194327
:102970008160704730B5056A25F001050562026A7D
:102980004368846924F0700424F003040D682C4328
:1029900022F002028D682A43104DA84200D103E0C4
:1029A0000F4DA84206D100BF22F00802CD682A438D
:1029B00022F00402094DA84202D0094DA84207D1D5
:1029C00023F4807323F400734D692B438D692B43EB
:1029D000436084614D684563026230BD0000014080
:1029E0000004014030B5056A25F010050562026A51
:1029F0004368846924F4E04424F440740D6844EA94
:102A0000052422F020028D6842EA0512124DA842E8
:102A100000D103E0114DA84207D100BF22F080028F
:102A2000CD6842EA051222F040020B4DA84202D0C6
:102A30000A4DA84209D123F4806323F400634D6951
:102A400043EA85038D6943EA8503436084614D68E9
:102A50008563026230BD00000000014000040140B7
:102A600030B5056A25F480750562026A4368C46959
:102A700024F0700424F003040D682C4322F4007247
:102A80008D6842EA0522124DA84200D103E0114DA3
:102A9000A84207D100BF22F40062CD6842EA0522B5
:102AA00022F480620A4DA84202D00A4DA84209D100
:102AB00023F4805323F400534D6943EA05138D69D1
:102AC00043EA05134360C4614D68C563026230BDCB
:102AD000000001400004014030B5056A25F480552E
:102AE0000562036A4468C26922F4E04222F440723B
:102AF0000D6842EA052223F400538D6843EA05334A
:102B0000084DA84202D0084DA84204D124F48044C4
:102B10004D6944EA85144460C2614D6805640362EE
:102B200030BD0000000001400004014030B50B46FC
:102B30001446026A056A25F001050562816921F0E3
:102B4000F00141EA041122F00A021A438161026293
:102B500030BD30B50B461446056A25F010050562F8
:102B60008169026A21F4704141EA043122F0A00235
:102B700042EA03128161026230BD70B50546AC6B5A
:102B80000020E085E0842046FFF751F970BD00BFCA
:102B900000BF02680C3252E8002F22F490710268E4
:102BA0000C3242E80013002BF3D100BF00BF00BF7E
:102BB0000268143252E8002F22F001010268143238
:102BC00042E80013002BF3D100BF016B01290ED1A5
:102BD00000BF00BF02680C3252E8002F22F0100143
:102BE00002680C3242E80013002BF3D100BF202111
:102BF00080F83E1000210163704710B5044620683C
:102C0000C06820F040002168C860202084F83D00A2
:102C10002046FFF7ACFC002010BDF8B5044694F840
:102C20003E00222873D1A068B0F5805F0CD12069E6
:102C300050B90025A66A20684068C0F308003080BB
:102C4000A06A801CA06215E0A56A0026A068B0F505
:102C5000805F03D0A06828B9206918B9206840684F
:102C6000287004E02068406800F07F002870A06AA7
:102C7000401CA062E08D401E80B2E085002844D157
:102C80002068C06820F020002168C8602068C06803
:102C900020F480702168C8602068406920F001003D
:102CA00021684861202084F83E00206B012826D14D
:102CB0000020206300BF00BF21680C3151E8001FD5
:102CC00021F0100021680C3141E80002002AF3D104
:102CD00000BF2068006800F0100010280AD100BF73
:102CE00000200090206800680090206840680090F4
:102CF00000BF00BFA18D2046FFF798F802E02046F4
:102D0000FFF734FB0020F8BD01E00020FBE70220C4
:102D1000F9E700002DE9F84F04462068006920F427
:102D20004050E1680843216808612169A0680843B0
:102D300061690843E169084300902068C06849F26E
:102D40000C618843009908432168C8602068406985
:102D500020F44070A16908432168486176492068E1
:102D6000884203D075492068884203D1FEF7A2FA51
:102D7000814602E0FEF78EFA8146E069B0F5004F29
:102D80006CD102206168A0FB015003461920A9FB09
:102D9000007001462A463846FDF714FA6421B0FB5C
:102DA000F1F04FEA001A02206168A0FB01510B46C6
:102DB0001920A9FB00712A463846FDF703FA83461D
:102DC00002206168A0FB015003461920A9FB007195
:102DD0002A463846FDF7F6F96421B0FBF1F000EB26
:102DE000C00101EB0010ABEB8000322101EBC00011
:102DF0006421B0FBF1F000F0F8000AEB400A022079
:102E00006168A0FB015003461920A9FB0070014630
:102E10002A463846FDF7D6F9834602206168A0FBB2
:102E2000015003461920A9FB00712A463846FDF7D8
:102E3000C9F96421B0FBF1F000EBC00101EB001017
:102E4000ABEB8000322101EBC0006421B0FBF1F05C
:102E500000F007005044216888606AE0042061683F
:102E6000A0FB015003461920A9FB007001462A4629
:102E70003846FDF7A7F9824604206168A0FB01509F
:102E800003461920A9FB007001462A463846FDF783
:102E900099F96421B0FBF1F000EBC00101EB0010E7
:102EA000AAEB8000322101EB00106421B0FBF1F0AD
:102EB00000F0F00A04206168A0FB017003461920AD
:102EC000A9FB00513A462846FDF77CF96421B0FB86
:102ED000F1F00AEB001A04206168A0FB01510B46D7
:102EE0001920A9FB00712A463846FDF76BF9834685
:102EF00004206168A0FB015003461920A9FB007063
:102F000001462A463846FDF75DF96421B0FBF1F031
:102F100000EBC00101EB0010ABEB8000322101EBB4
:102F200000106421B0FBF1F000F00F005044216864
:102F30008860BDE8F88F00000010014000140140D7
:102F400010B5034699629A85DA850020186422201C
:102F500083F83E0000BF002083F83C0000BF1869E2
:102F600028B11868C06840F480701C68E060186878
:102F7000406940F001001C6860611868C06840F05A
:102F800020001C68E060002010BD014691F83D0063
:102F9000212828D18868B0F5805F0BD1086948B92D
:102FA0000A6A1088C0F308000B685860086A801C21
:102FB000086205E00B6A581C086218780B685860B4
:102FC000C88C401E80B2C88458B90868C06820F018
:102FD00080000B68D8600868C06840F040000B684B
:102FE000D860002070470220FCE72DE9F04104463C
:102FF0000D4617469846069E34E0701C88B32EB1E5
:10300000FDF7A4FFA0EB0800B0422BD900BF00BF22
:1030100021680C3151E8001F21F4D07021680C3177
:1030200041E80002002AF3D100BF00BF00BF2168C1
:10303000143151E8001F21F001002168143141E8EA
:103040000002002AF3D100BF202084F83D0084F85C
:103050003E0000BF002084F83C0000BF0320BDE814
:10306000F081FFE7206800682840A84201D10120D4
:1030700000E00020B842C0D00020F0E710B50248C0
:10308000FEF7D6FE10BD00008406002010B50248F1
:10309000FEF7CEFE10BD0000C806002010B50248A5
:1030A000FEF7C6FE10BD00000C07002000BFFEE7C3
:1030B0000FB4054B10B503A9044A029800F034F888
:1030C00010BC5DF814FB00006135000854000020BE
:1030D00002480068C0F30220704700000CED00E0D9
:1030E00010B5002804DB0A07130E054A135406E046
:1030F0000A07140E034A00F00F031B1FD45410BD1F
:1031000000E400E018ED00E002E008C8121F08C16A
:10311000002AFAD170477047002001E001C1121F58
:10312000002AFBD1704700002DE9FF4F8BB09A4673
:103130000F460446002606E025280BD052460D997E
:103140009047641C761C20780028F5D10FB03046DB
:10315000BDE8F08F0025A94601227D4900E0054326
:1031600014F8013F203B02FA03F00842F7D120781F
:103170002E2817D114F8010F45F004052A280ED087
:103180006FF02F022078A0F1300109290AD809EB4D
:10319000890102EB410100EB0109641CF2E757F8D9
:1031A000049B641C20786C280DD004DC4C2812D0C1
:1031B0006A2811D104E074280DD07A280CD10AE0D5
:1031C00045F4001507E0617845F48015814202D18D
:1031D000641C05F58015641C207869283ED006DC47
:1031E0000028B3D063280BD0642804D136E07328BC
:1031F00010D075285CD052460D999047761CA5E0FA
:1032000017F8040B8DF8000000208DF80100E84647
:10321000012003E057F8048B4FF0FF3069074FF0AF
:10322000000501D40AE06D1C4D450DDA8542FADB3C
:1032300018F805100029F6D106E06D1C8542FCDB6C
:1032400018F805100029F8D12E4404E018F8010BF5
:1032500052460D9990476D1EF8D277E000200A90F3
:10326000C5F302504FF00A0B02280CD001CFC11752
:10327000021E71F100020CDA0023D0EB030063EBB5
:1032800001012D2208E0FF1D27F00707F7E80201E2
:10329000EEE72A0504D52B228DF82420012203E035
:1032A000EA070FD02022F7E70DF12008089218E076
:1032B00000200A90C5F302504FF00A0B022803D0F9
:1032C00001CF00210022EFE7FF1D27F00707F7E8F5
:1032D0000201F7E75A460A9BFCF774FF303208F800
:1032E000012D50EA0102F5D1ADEB080000F1200BF1
:1032F000680701D44FF00109D94502DDA9EB0B00A5
:1033000000E000208146002506E009A85246405D05
:103310000D9990476D1C761C08988542F5DB04E0FA
:10332000302052460D999047761CB9F10001A9F161
:103330000109F5DC05E018F8010B52460D9990479C
:10334000761CBBF10001ABF1010BF4DC641CFAE666
:103350000928010010B500206A49087014E06A4885
:1033600068490978405C6949664A12788854684817
:1033700064490978415C6748624A1278815461481F
:103380000078401C5F4908705E4800782028E6DB22
:103390005C48007820287DD10024ACE05B48005DCB
:1033A000572857D15949601C085C002852D1A01CED
:1033B000085CFF284ED108195749097800F0A4F994
:1033C000002847D0514904F10C00095C4F4A401CC9
:1033D000105C41EA002018B950A0FFF769FE39E0FF
:1033E0004A49201D095C494A601D105C41EA0021E0
:1033F000A01D105C41EA0041E01D105C41EA006044
:103400004A490860114604F10800095C401C105C40
:1034100041EA002104F10A00105C41EA00404449FD
:1034200008600846016843A0FFF742FE47A0FFF787
:103430003FFE364904F10B00085C464908703349E9
:1034400004F10C00095C314A401C105C41EA002088
:10345000414908602F48005D57284BD12D49601C19
:10346000085CE8BBA01C085CFF2843D108192A4966
:10347000097800F049F998B3264904F10C00095C79
:10348000244A401C105C41EA002048B31146201D2C
:10349000095C00E035E0601D105C41EA0021A01DE0
:1034A000105C41EA0041E01D105C41EA00601F49E8
:1034B0000860114604F10800095C401C105C41EAF8
:1034C000002104F10A00105C41EA00402349086031
:1034D000114604F10B00085C1E490870114600E01B
:1034E00008E004F10C00095C401C105C41EA00207B
:1034F00019490860641C102CFFF650AF00200149E8
:10350000087010BD31000020F404002034010020B8
:10351000BC05002054010020180000204F757420C5
:103520006F662072616E6765210D0A001C00002025
:1035300020000020544F462064697374616E6365F7
:103540002069733A20256C64000000006D6D0D0A3F
:1035500000000000280000202C0000202400002093
:1035600013B50C464FF47A73012269460248FEF700
:1035700095FF00981CBD0000840600208289C2814E
:10358000204A52781F4B1B7842EA032282811D4A4F
:10359000D2781C4B9B7842EA032212B20280194A6D
:1035A0005279184B1B7942EA032200EE102AB8EE3A
:1035B000C00AF1EE040A20EE200ADFED130A80EEC5
:1035C000201A80ED011A0F4A927982728289C3898A
:1035D000D21AB2F5805F03DD4269521E426108E0F3
:1035E0008289C389D21A12F5805F02DA4269521CBD
:1035F00042618389426903EB4232038AD21A8261B3
:1036000070470000080000200000804608B5FDF764
:10361000AFFCFFF7C3F8FEF7D1FFFEF7ABFFFFF7F4
:103620000FF8FFF75DF8FFF777F8FFF791F8012241
:103630000F491048FEF778FE40F2DC50FDF778FBAA
:103640000D4800F01BF80C48FDF7D1FA02210A489A
:10365000FCF73AFE0AE00020034602464FF4FA71F6
:103660000090054800F020F8FFF774FEF3E7000033
:103670003E000020C80600208404002010B5044647
:103680000020084988610120C86100200860486066
:103690008860C86008614861012008622046FCF724
:1036A000D3FE10BDD80000202DE9F04180460C4625
:1036B00015461E46069F4FF400700F490860002013
:1036C0008860C8600820086100200875200A0B493E
:1036D00008704C70280A8870CD70300A08714E71DD
:1036E000380A8871CF71064B0A4603490548FCF732
:1036F00000FEBDE8F0810000000100200000002075
:10370000100000208404002010B5024600200B4C5D
:103710002070002306E0D05C084C24782044074C3D
:1037200020705B1C481E9842F5DC105C034C24782A
:10373000A04201D1012010BD0020FCE73000002094
:103740000000000000000000010203040607080951
:103750000000000001020304783700080000002088
:103760005800000008310008D03700085800002039
:10377000F80A0000183100080000000000000000F6
:103780000000000000000000000000000000000039
:10379000105700FF000000000000000000000000C3
:1037A0000000000000000000000000000000000019
:1037B0000000000000000000000000000000000009
:1037C00010000000010000000024F40000000000D0
:040000050800018965
:00000001FF
