:020000040800F2
:1000000008E70120A1010008E7360008B532000822
:10001000E536000899090008913D0008000000003D
:10002000000000000000000000000000EB360008A7
:100030008D0B000800000000E9360008ED360008CE
:10004000BB010008BB010008BB010008BB010008A0
:10005000BB010008BB010008BB010008BB01000890
:10006000BB010008BB010008BB010008BB01000880
:10007000BB010008BB010008BB010008BB01000870
:10008000BB010008BB010008BB010008BB01000860
:10009000BB010008BB010008BB010008BB01000850
:1000A000BB01000895370008BB010008BB01000830
:1000B000BB010008BB010008BB010008BB01000830
:1000C000BB010008BB010008BB010008BB01000820
:1000D000BB0100086D3D0008793D0008853D000822
:1000E000BB010008BB010008BB010008BB01000800
:1000F000BB010008BB010008A1370008BB010008D4
:10010000BB010008BB010008BB010008BB010008DF
:10011000BB010008813A0008BB010008BB010008D0
:10012000BB010008BB010008BB010008BB010008BF
:10013000BB010008BB010008BB010008BB010008AF
:100140009D090008BB010008BB010008BB010008B5
:10015000BB010008BB010008BB010008BB0100088F
:10016000BB010008BB010008BB010008BB0100087F
:10017000BB010008BB010008BB0100080000000033
:10018000BB010008BB010008DFF810D000F076FBCF
:1001900000480047F9560008AFF3008008E7012047
:1001A0000648804706480047FEE7FEE7FEE7FEE711
:1001B000FEE7FEE7FEE7FEE7FEE7FEE7853700081D
:1001C000890100082DE9F05F0546002092469B4614
:1001D00088460646814640241BE02846414647465D
:1001E000224600F06CFA53465A46C01A914110D389
:1001F00011461846224600F053FA2D1A67EB010803
:100200004F4622460120002100F04AFA17EB000970
:100210004E41201EA4F10104DFDC484631462A4647
:100220004346BDE8F09FD2B201E000F8012B491E21
:10023000FBD270470022F6E710B513460A46044683
:100240001946FFF7F0FF204610BD2DE9FE4F80460E
:1002500081EA0300C00F0C46009021F0004123F01A
:100260000045B8EB0200A94105D240462146904620
:100270001C460B46024623F00040104347D0270D92
:10028000C7F30A00C3F30A510290401A01904028B4
:100290006BDAC3F3130040F4801B0098924620B140
:1002A0000023D2EB030A63EB0B0B01985946C0F114
:1002B0004002504600F0F4F906460D4650465946B5
:1002C000019A00F00CFA10EB08006141002487EA63
:1002D000115284EAE7731A4340D0009A62B3019A3C
:1002E000012A4FEA075215DC001B61EB02014FF0B7
:1002F000004202EA0752CDE90042001C41F580119C
:1003000032462B4600F043FA03B0BDE8F08F40467A
:100310002146F9E7001B61EB0201001C41F5801347
:1003200000185B412018A2F5001747EB030140EAD3
:10033000D570B6196D4111E06D084FEA360645EAF1
:10034000C0754FEA0752001B61EB0201001C41F52A
:10035000801149084FEA30000019514132462B46BE
:1003600003B0BDE8F04F00F003BA0098012240004E
:100370000023D0EB020263EBE073009821464FEAC2
:10038000E074B8EB000061EB0401E9E783F000439F
:100390005BE781F0004158E72DE9FE4F81EA030455
:1003A00004F0004421F0004100944FF0000B23F0D2
:1003B000004350EA01045ED052EA03045BD0C3F369
:1003C0000A54C1F30A552C44A4F2F3340194A0FB5F
:1003D0000254C1F3130141F48011C3F3130343F436
:1003E000801301FB024400FB034E840A970A44EA8F
:1003F000815447EA8357A4FB076802958D0A05FBE1
:1004000007854FEA932C04FB0C542705029D4FEA05
:10041000065847EA1637B5EB08056EEB070C870E52
:10042000920E47EA811742EA8312A7FB0201B6EB5C
:100430000B0164EB00042B0D43EA0C335E1844EB14
:100440001C50DA465146E7FB0201C5F313044FEA9C
:100450000B3343EA14534FEA0432019C43EA060388
:10046000A4F10C040294009CCDE900B400F08FF9D3
:1004700003B0BDE8F08F00200146F9E72DE9F04D0B
:1004800081EA030404F0004B21F0004514464FF0CC
:10049000000A23F0004150EA050220D054EA01028C
:1004A0001DD0C5F30A570246C5F31303C1F3130069
:1004B000C1F30A5640F4801543F48013A7EB0608F5
:1004C000101BD64608F2FD3873EB050002D308F185
:1004D000010801E092185B41B8F1000F03DA002037
:1004E0000146BDE8F08D00204FF480110646844699
:1004F0000EE0171B73EB050705D3121B63EB050317
:1005000006434CEA010C49084FEA300092185B415F
:1005100050EA0107EDD152EA030012D082EA04004A
:1005200083EA0501084305D0101BAB4106D2012226
:10053000002306E000224FF0004302E06FF00102CA
:1005400053101AEB06004CEB085110EB0A0041EB7C
:100550000B01BDE8F04D00F00BB90EB540F2334190
:1005600002910021CDE900110A460B4600F00FF977
:1005700003B000BD70B5C1F30A5201F0004500247C
:10058000C1F3130140F2FF3341F480119A4201DAC2
:10059000002070BD40F233439A42A2F2334203DCA2
:1005A000524200F08CF800E090402C43F1D04042E1
:1005B00070BDC1F30A5210B5C1F3130140F2FF330D
:1005C00041F480119A4201DA002010BD40F2334319
:1005D0009A42A2F2334203DC524200F070F810BD9E
:1005E000904010BD00F0004230F000400AD0C10D34
:1005F00001F56071C0F3160042EA0151C2084007DC
:1006000011437047002001467047000030B5041EBA
:1006100071F1000404DB4FF00044404264EB01013F
:10062000141E73F1000405DB1C464FF000435242D8
:1006300063EB0403994208BF904230BD01F00043D0
:1006400030B421F0004150EA010206D00A0DA2F5B3
:100650006072C1F31301002A02DC30BC0020704735
:10066000440F44EAC104C100E01830BC00EBC250A2
:1006700000F047B830B50B46014600202022012487
:1006800009E021FA02F59D4205D303FA02F5491B60
:1006900004FA02F52844151EA2F10102F1DC30BD76
:1006A000202A04DB203A00FA02F100207047914032
:1006B000C2F1200320FA03F3194390407047202A27
:1006C00004DB203A21FA02F00021704721FA02F3FC
:1006D000D040C2F120029140084319467047202AB9
:1006E00006DBCB17203A41FA02F043EAE07306E05A
:1006F00041FA02F3D040C2F120029140084319466A
:1007000070470029A8BF7047401C490008BF20F06F
:100710000100704710B4B0FA80FC00FA0CF050EA07
:10072000010404BF10BC704749B1CCF1200421FA88
:1007300004F411FA0CF118BF012121430843A3EB83
:100740000C01CB1D4FEA00614FEA102042BF002090
:1007500010BC704700EBC35010440029A4BF10BC6C
:100760007047401C490008BF20F0010010BC7047D2
:1007700010B5141E73F1000408DA401C41F10001A9
:1007800092185B411A4301D120F0010010BD2DE900
:10079000F04D92469B4611B1B1FA81F202E0B0FAF7
:1007A00080F220329046FFF77BFF04460F4640EA76
:1007B0000A0041EA0B0153465A46084313D011463A
:1007C00053EA010019D0C8F140025046FFF777FF05
:1007D00005460E46504659464246FFF761FF08431C
:1007E00005D0012004E020463946BDE8F08D002008
:1007F000054346EAE0762C4337430A986305E40A4A
:10080000A0EB08000022FD0A44EA47540A3002D552
:1008100000200146E9E7010510196941DDE90845B5
:1008200000196941BDE8F04DA2E770B521F0004321
:1008300003430CD0C1F30A550024D5EB040564EB47
:100840000403D617AD1AB34102DB0020014670BD88
:10085000201841EB025170BD0EB5C10F80EAE07067
:100860000844CA07002140F233438DE80E000A46CF
:100870000B46FFF78CFF03B000BD0000064C074D90
:1008800006E0E06840F0010394E807009847103460
:10089000AC42F6D3FFF77CFCC06F0008F06F000895
:1008A0002DE9F04D00231A461B1A8A4103DB002074
:1008B0000146BDE8F08DC1F30A52C1F3130141F4C2
:1008C00080154FF0000BD10702D100186D41521E68
:1008D0000027044640F2FF11384601EB620A3E460B
:1008E0008046024600204FF48011FFF7E8FEC2194F
:1008F0007141BB1846EB0100B4EB030C75EB000C27
:1009000004D3E41A65EB000517460E46241908F1D6
:1009100001006D4180463428E3DDF91946EB0600FD
:10092000091BA84103D24FF0FF32134601E0002219
:1009300013461BEB070046EB0A51BDE8F04DFFF7ED
:1009400017BF70B58C1810F8015B15F0070301D1C3
:1009500010F8013B2A1106D110F8012B03E010F822
:10096000016B01F8016B5B1EF9D12B0705D4002345
:10097000521E0DD401F8013BFAE710F8013BCB1AE7
:10098000921C03E013F8015B01F8015B521EF9D5DC
:10099000A142D8D3002070BDFEE70000014800F05E
:1009A0006EB9000014DF012070B52B4C2DED048BC7
:1009B000E07821790843617908434AD1274800212A
:1009C000016041608160264D9FED268B95ED000B07
:1009D00053EC182B51EC100BFFF7DEFCFFF7CAFDB0
:1009E0009FED229A02460123F0EE490AB0EE490A31
:1009F0006421002006F060F895ED020B53EC182BF3
:100A000051EC100BFFF7C8FCFFF7B4FD02460223C0
:100A1000F0EE490AB0EE490A6421002006F04CF8D5
:100A200095ED040B53EC182B51EC100BFFF7B4FCB5
:100A3000FFF7A0FD9FED0E0A02460323F0EE400AE9
:100A40004FF49671002006F037F80120E070207115
:100A50006071BDEC048B70BD70C00120B4DD01205D
:100A600080C00120000000000000A9400AD7233CFC
:100A70009A99993E2DE9F0413C4C3D4D3F4E2DED6C
:100A8000048BE0789FED3B8B012807D1207901286A
:100A900004D106F0E3F8022006F0E0F895ED000B33
:100AA00053EC182B51EC100BFFF776FC41EC100BBC
:100AB00003F036FAB0EE409AF0EE609A3068FFF735
:100AC0004CFD53EC192BFFF7A1FD4AD895ED020B15
:100AD00053EC182B51EC100BFFF75EFC41EC100BA4
:100AE00003F01EFAB0EE409AF0EE609A7068FFF7DD
:100AF00034FDB0EE490AF0EE690A53EC102BFFF713
:100B000085FD2ED860790227012802D1032006F046
:100B1000A5F895ED040B53EC182B51EC100BFFF7D7
:100B20003BFC41EC100B03F0FBF9B0EE408AF0EE19
:100B3000608AB068FFF711FD53EC182BFFF766FDD4
:100B40000DD8677101200E49207300200870032022
:100B50009FED0C0B05F020FF0320E0702071E77083
:100B60002771BDEC048BBDE8F081000070C001204E
:100B700080C00120000000000000A940B4DD012079
:100B800040C101200000000000004E40704772B6D6
:100B9000FEE7000030B5B3F5804F05D06FF070412F
:100BA00040F82210002030BD8C690B688D6823430B
:100BB0004C688989240144EA0524234343EA01411E
:100BC00050F82230014C23401943E9E70000F0CFF0
:100BD00010B50A6850F8223023F0010340F82230A3
:100BE0008C68082C23D000234A682243CC681C431D
:100BF0000B6922431A434B690E4C1A43CB691A43C3
:100C00000B6A1A434B6A1A438B6A1A43CB6A1A431C
:100C10000B6B1A438B691343CA6B09681A4350F86C
:100C20002130A343134340F82130002010BD40235E
:100C3000DAE700007FFF0F0030B5D1E9003443EA66
:100C400004138C688D89240244EA054423430C8AEA
:100C5000094D00EB820005EB045423430C7D6D012C
:100C600005EB0464896923430B43416801F040416B
:100C70000B434360002030BD0000F0FF70472DE9BA
:100C8000F05F0546006800244669D0F80490876844
:100C9000D0F80CB0D0F810A0D0F81880F10748D0E8
:100CA000F90714D001218160B80703D5284600F068
:100CB000BDF90CE0780702D54FF4006407E038076F
:100CC00002D54FF4805402E0284600F0AEF9F80552
:100CD00016D529684FF480708860B80503D528467A
:100CE00000F0A6F90CE0780502D544F4005407E0C2
:100CF000380502D544F4804402E0284600F097F914
:100D0000F80316D529684FF480308860B80303D5FE
:100D1000284600F08FF90CE0780302D544F4004433
:100D200007E0380302D544F4803402E0284600F09E
:100D300080F9300707D55FEACB6004D52968102019
:100D400044F40074C86070074FF0080707D55FEAE5
:100D50000B7004D52868C760284600F061F9B00719
:100D600006D52868C068800702D0284600F059F9E7
:100D7000700607D55FEACA6004D52968102044F4DC
:100D800080640861B00607D55FEA0A7004D5286858
:100D90000761284600F046F9F00606D52868006984
:100DA000800702D0284600F03EF9B00308D55FEA7C
:100DB000C96005D5296810204860284600F034F93C
:100DC000F00307D55FEA097004D528684760284614
:100DD00000F031F9300446D55FEA497040D5F0059E
:100DE00004D55FEAC87001D044F00104B00504D511
:100DF0005FEA887001D544F00204700504D55FEA0B
:100E0000487001D544F00404300529D518F0700F5E
:100E100026D008F07000402815D006DC102809D034
:100E200020280AD0302816D10AE050280ED0602899
:100E300011D10EE044F008040DE044F010040AE083
:100E400044F0200407E044F0400404E044F080044F
:100E500001E044F480742868816921F070018161A7
:100E6000296804204860002C05D0686A2043686225
:100E70002846FFF703FFBDE8F09F70B5040003D0DC
:100E800094F8200010B104E0012070BD204600F06D
:100E900081F82068016841F00101016000F08CFADE
:100EA0000546052604E000F087FA401B0A2811D801
:100EB00020684068C007F6D02068016821F0020170
:100EC000016000F079FA05460BE000F075FA401B6E
:100ED0000A2806D9606A40F40030606284F8206015
:100EE000D2E7206840688007EFD4207E0128206880
:100EF00001683DD021F080010160607E01282068FA
:100F0000016838D021F040010160A07E01282068EE
:100F1000016833D021F020010160E07E01282068C3
:100F200001682ED041F010010160207F0128206867
:100F3000016829D021F008010160607F0128206844
:100F4000016824D021F004010160D4E902010843C2
:100F5000D4E90412114308436168491E084321681B
:100F6000C86100206062012084F82000002070BD6C
:100F700041F08001C0E741F04001C5E741F02001A8
:100F8000CAE721F01001CFE741F00801D4E741F0B2
:100F90000401D9E710B586B0044614216846FFF76E
:100FA00049F91C492068884231D11B480021026858
:100FB00042F080620260026802F08062059202687C
:100FC00042F000720260006800F000700590124864
:100FD0001038026842F002020260006800F002006D
:100FE00005904FF4405000900220CDE9010103200C
:100FF0000390092004906946084800F0DFF80022B9
:101000001146402000F046FA402000F035FA06B0C4
:1010100010BD00000068004040380240000402405B
:101020007047704770477047704770477047704708
:1010300070477047704770472DE9F0410446876D4F
:1010400000F0BAF9064694F835000025022806D0CB
:101050008020606584F834500120BDE8F08120686C
:10106000016821F0160101602068416921F08001CA
:101070004161206C08B9A06C20B12068016821F0A2
:10108000080101602068016821F0010101600CE0A5
:1010900000F092F9801B052807D920206065032005
:1010A00084F8350084F83450D7E720680068C0071A
:1010B000EED194F85C103F208840B860012084F89D
:1010C000350084F834500020C7E790F83510022925
:1010D00003D08021416501207047052180F835103B
:1010E0000068016821F001010160002070470000E4
:1010F00070B5044600F060F90546601C02D0044853
:101100000078044400F058F9401BA042FAD370BDA7
:101110007CC10120F0B587B014216846FFF78AF83A
:101120002048016800293AD1012101601E480024AD
:10113000016841F0010101600068022500F0010032
:1011400005904FF23F00CDE9000502AA03260C27C7
:1011500082E8D0006946154800F030F840F23F4080
:10116000CDE9000502AA694682E8D000104800F0E7
:1011700025F84FF68070CDE9000502AA694682E89D
:10118000D0000C4800F01AF84FF63370CDE9000596
:1011900002AA694682E8D000074800F00FF807B0BD
:1011A000F0BD000068C10120383802400014024040
:1011B0000018024000100240000C02402DE9F84FD8
:1011C000DFF8BCA10022012503264FF00F090AF128
:1011D000040BAAF1040E00BF0B6805FA02F42340C9
:1011E000A34270D10F7907F00307012F01D0022F1E
:1011F00016D187684FEA420806FA08FC27EA0C076E
:10120000D1F80CC00CFA08FC4CEA070CC0F808C076
:101210004768A7430C79C4F3001494403C434460EE
:101220000C79E443A4070AD0C4684FEA420C06FADA
:101230000CF7BC438F6807FA0CF72743C7600C799B
:1012400004F00304022C12D1D40800EB840CDCF867
:1012500020405707FF0E09FA07F824EA0804D1F8DE
:10126000108008FA07F848EA0408CCF820800468DF
:101270004FEA420C06FA0CF7BC430F7907F003075C
:1012800007FA0CF7274307604C6814F4403F70D00E
:101290003C4C276847F480472760246822F0030706
:1012A00004F480440094384C07EB040CDCF8084844
:1012B00097074FEA177809FA08F7BC43334FB8424B
:1012C00002D1002724E054E0314FB84201D1012778
:1012D0001EE0304FB84201D1022719E02E4FB8422C
:1012E00001D1032714E02D4FB84201D104270FE0AC
:1012F0002B4FB84201D105270AE02A4FB84201D14D
:10130000062705E0284FB84201D1072700E008274B
:1013100007FA08F72743CCF80878DAF80040574670
:10132000D1F804C09C435FEACC2C00D51C433C6040
:10133000DBF800405F46D1F804C09C435FEA8C2C88
:1013400000D51C433C60DEF800407746D1F804C06D
:101350009C435FEA8C3C00D51C433C60084F083F2F
:101360003C68D1F804C09C435FEACC3C00D51C43E8
:101370003C60521C102AFFF42FAFBDE8F88F00002C
:10138000083C014044380240003001400000024067
:101390000004024000080240000C0240001002401D
:1013A0000014024000180240001C02400AB1816192
:1013B00070470904FBE7000001488068704700009F
:1013C0007CC1012002488168027811448160704725
:1013D0007CC101200B4810B5016841F40071016027
:1013E000016841F480610160016841F4807101602D
:1013F000032000F06FF80F2000F006F800F024F84A
:10140000002010BD003C024070B50D4D04464FF465
:101410007A712878B1FBF0F00A490968B1FBF0F065
:1014200000F03AFB48B9102C07D200222146501E8A
:1014300000F030F800206C6070BD012070BD00002D
:101440007CC1012088C101200A4808B5016841F427
:1014500080410160006800F4804000900548001F52
:10146000016841F080510160006800F080500090F8
:1014700008BD000044380240002809DB00F01F02CC
:10148000012191404009800000F1E020C0F80011E6
:1014900070470000F0B40E4B1B680C46C3F30223E8
:1014A000C3F10705042D00D90425191D072901D210
:1014B000002300E0DB1E012606FA05F1491E21404B
:1014C00099409E40761E16403143F0BC02F08ABC23
:1014D0000CED00E0064900F0070208684FF6FF0334
:1014E000184040EA0220034A104308607047000099
:1014F0000CED00E00000FA052DE9F0470E4605006E
:1015000065D0DFF81481D8F80000F7B200F00700CA
:10151000B04207D288F80070D8F8000000F0070049
:10152000B04254D128683D4C810712D5400703D5FD
:10153000206840F4E05020602878000703D5206838
:1015400040F4604020602068A96820F0F000084363
:1015500020602878C0072DD03049686808390128F4
:1015600012D0022813D0032811D009688907002956
:101570002DDA216821F0030101432160FFF71CFFF0
:10158000814641F2883A0EE009688903EFE709686D
:101590008901ECE7FFF710FFA0EB0901514502D9E3
:1015A0000320BDE8F0872068696800F00C00B0EB0C
:1015B000810FEFD1D8F80010404601F00701B14289
:1015C00007D90770006800F00700B04201D0012081
:1015D000E7E72878400705D52068E96820F4E0505F
:1015E000084320602878000706D52068296920F480
:1015F000604040EAC100206000F038F82168084AE5
:10160000C1F30311515CC8400649086006480068F0
:10161000FFF7FAFE0020C4E7003C02400838024011
:10162000186F000888C1012080C1012004480549C5
:1016300000680968044AC1F38221515CC8407047C0
:1016400088C1012008380240286F00080448054975
:1016500000680968044AC1F34231515CC8407047D0
:1016600088C1012008380240286F0008154810B5CD
:10167000006810F00C02144813D04110042A0FD057
:10168000082A0ED10F4C241F2268236802F03F0263
:101690005B0207D52068C0F38810A0FB010106E0BB
:1016A000084610BD2168C1F38811A1FB0001002389
:1016B000FEF788FD2168C1F30141491C4900B0FBD8
:1016C000F1F010BD083802400024F4002DE9F84F75
:1016D00004006ED02078DFF84C93C007A9F1040510
:1016E0004AD009F104000168C1F38101012908D041
:1016F0000068C0F3810002280AD1D9F80000400236
:1017000006D52868800337D560680028E1D033E02B
:101710006068B0F5803F10D0B0F5A02F286810D0D9
:1017200020F480302860286820F4802028606068D9
:10173000A8B1FFF741FE06460DE0286840F480306E
:10174000F4E740F480202860F7E700BFFFF734FE9D
:10175000801B642873D828688003F7D50CE0FFF756
:101760002BFE064605E000BFFFF726FE801B64281F
:10177000F0D828688003F7D42078DFF8AC8280079F
:101780004FF0000A3ED5A748001D016811F00C0F6C
:1017900008D00068C0F3810002280BD1D9F80000FE
:1017A000400207D42868800716D5E068012800D1D8
:1017B00012E033E1E068B8B10120C8F80000FFF79B
:1017C000FBFD064605E000BFFFF7F6FD801B022883
:1017D000C0D828688007F7D52868216920F0F8006C
:1017E00040EAC10028600DE0C8F800A0FFF7E4FD62
:1017F000064604E0FFF7E0FD801B02281FD828689A
:101800008007F7D42078000722D5864F8748616982
:10181000703771B101210160FFF7CEFD064604E08B
:10182000FFF7CAFD801B022809D838688007F7D562
:101830000EE0C0F800A0FFF7BFFD064605E082E01D
:10184000FFF7BAFD801B02287DD838688007F7D4DF
:101850002078400768D5DFF8CCB100270BF13C0BAE
:10186000DBF80000C0000BD4DBF8001041F0805121
:10187000CBF80010DBF80000012700F0805000904A
:101880006B4E3068C00510D4306840F48070306012
:10189000FFF792FD009005E0FFF78EFD0099401ADA
:1018A000022850D83068C005F6D55E4EA0686C3668
:1018B00001280FD00528306810D020F001003060DA
:1018C000306820F004003060A068B8B1FFF774FD04
:1018D00000900FE0306840F00100F4E740F00400B1
:1018E0003060F7E7FFF768FD0099411A41F2883050
:1018F000814266D830688007F4D50EE0FFF75CFDC2
:10190000009007E0FFF758FD0099411A41F2883036
:10191000814256D830688007F4D42FB1DBF800102C
:1019200021F08051CBF80010A069C8B33D49091DD2
:101930000968C1F3810102294AD00228504607D024
:10194000C8F8600000E03CE0FFF736FD04463BE0ED
:101950004746C8F86000FFF72FFD064605E000BFC8
:10196000FFF72AFD801B02282BD828688001F7D4B6
:10197000D4E907010843A16A2E4A490802EB014154
:10198000626A41EA8211084394F82C1040EA01612E
:10199000C9F8001001203866FFF70EFD044606E086
:1019A0003EE000BFFFF708FD001B022809D82868A9
:1019B0008001F7D534E000BFFFF7FEFC001B0228D2
:1019C00002D90320BDE8F88F28688001F4D427E00D
:1019D0000128F7D0D9F80000E26900F480019142B3
:1019E0001CD1226A00F03F01914217D147F6C07125
:1019F000626A0140B1EB821F10D1A26A4FF0FF333F
:101A000000F4403103EB5202B1EB024F06D194F8DF
:101A10002C1000F07060B0EB016F01D00120D1E715
:101A20000020CFE70438024000004742800E4742C2
:101A3000007000400000FFFF70B515460E46040020
:101A400003D094F8490010B107E0012070BD0020D8
:101A500084F84800204600F01DF804F108012068D1
:101A6000FFF7B6F83146A2682068FFF7E5F8D4E939
:101A700001022946236BFFF78DF82168A06851F811
:101A8000202042F0010241F82020012084F8490082
:101A9000002070BDFFF73EBB10B5401EB0F1807F47
:101AA00001D3012010BD4FF0E02460610F216017C9
:101AB00002F098F90020A06107202061002010BDED
:101AC0007047704710B590F83C20012A22D00122BF
:101AD00080F83C20CA688C6822F4407222434C682B
:101AE00022F4806222430C6822F4006222430C69D3
:101AF00022F4805222434C6922F400522243C969E5
:101B0000002322F480420A4301684A6480F83C3092
:101B1000002010BD022010BD70B590F83C20012AB5
:101B200032D0012480F83C40022280F83D20036836
:101B30005A689D6822F070060A6832435A60134B57
:101B400002689A4214D0B2F1804F11D0104B9A42E1
:101B50000ED0104B9A420BD00F4B9A4208D00F4B2D
:101B60009A4205D00E4B9A4202D00E4B9A4204D1B3
:101B7000496825F080031943916080F83D400021B9
:101B800080F83C10084670BD022070BD0000014086
:101B90000004004000080040000C00400004014028
:101BA000004001400018004010B5040003D094F834
:101BB0003D0010B107E0012010BD002084F83C007A
:101BC000204600F01FF8022084F83D00211D206807
:101BD00001F0ECFD012084F8460084F83E0084F812
:101BE0003F0084F8400084F8410084F8420084F803
:101BF000430084F8440084F8450084F83D00002048
:101C000010BD000008B501681A48814209D11A4880
:101C1000016841F002010160006800F002000090DC
:101C200008BD1548154A001D91420ED1016841F0CA
:101C3000020101600068002200F0020000901146DD
:101C40002E20FFF727FC2E2010E00D4A9142E7D10D
:101C5000016841F4003101600068002200F40030A6
:101C6000009011461920FFF715FC1920BDE8084027
:101C7000FFF702BC0004004040380240000401406D
:101C80000044014090F83D10012901D00120704727
:101C9000022180F83D100168CA6842F00102CA6062
:101CA00000681149884214D0B0F1804F11D00F491B
:101CB00088420ED00E4988420BD00E49884208D087
:101CC0000D49884205D00D49884202D00C4988420E
:101CD00004D1816801F00701062903D0016841F0B1
:101CE0000101016000207047000001400004004035
:101CF00000080040000C004000040140004001408A
:101D0000001800400168CA6822F00102CA60016838
:101D10000A6A41F211131A4207D10A6A9B101A4249
:101D200003D10A6822F001020A60012180F83D1007
:101D30000020704770B5044690F83C00002501284B
:101D400017D0012684F83C60022084F83D0020680A
:101D5000826822F0770222F47F428260086850286D
:101D600038D00DDC20284FD005DC90B3102811D1DD
:101D70004AE0022070BD302846D040280AD13BE01E
:101D800060282FD070280DD0B0F5805F03D0B0F55B
:101D9000005F12D0012584F83D60002084F83C00EB
:101DA000284670BDCB68D1E90121206801F06FFDA4
:101DB0002068816841F0770109E0CB68D1E9012111
:101DC000206801F064FD2068816841F480418160F1
:101DD000E1E719E0CA684968206801F02DFE50214A
:101DE000206806E0CA684968206801F036FE602174
:101DF000206801F056FDCEE7CA684968206801F006
:101E00001BFE40212068F4E7226801461046F0E7F7
:101E1000704770B50446006801694FF00005C9437A
:101E2000890715D4C168C943890711D4E91E016126
:101E300001202077206880698007204602D0FFF7C4
:101E4000E7FF04E000F004F9204600F03BFD2577B1
:101E500020680169C943490717D4C168C9434907C4
:101E600013D46FF00401016102202077206880699B
:101E700010F4407F204602D0FFF7CAFF04E000F0D4
:101E8000E7F8204600F01EFD257720680169C94368
:101E9000090716D4C168C943090712D46FF00801B5
:101EA0000161042020772068C0698007204602D0A5
:101EB000FFF7AEFF04E000F0CBF8204600F002FD93
:101EC000257720680169C943C90617D4C168C94389
:101ED000C90613D46FF01001016108202077206833
:101EE000C06910F4407F204602D0FFF791FF04E064
:101EF00000F0AEF8204600F0E5FC25772068016987
:101F0000C943C90708D1C168C943C90704D1891E9B
:101F10000161204600F03CFD20680169C9430906C3
:101F200009D4C168C943090605D46FF08001016175
:101F30002046FFF7C5FD20680169C943490609D459
:101F4000C168C943490605D46FF0400101612046CC
:101F500000F0F6FD20680169C94389060BD4C16809
:101F6000C943890607D46FF0200101612046BDE80E
:101F70007040FFF7A6BD70BD10B586B004461421B1
:101F80006846FEF757F92368174C002117480222CC
:101F9000A34210D1036843F001030360006800F01E
:101FA00001000590C0200090CDE90121CDE9031288
:101FB00069460F4814E00F4CA34213D1036843F065
:101FC00004030360006800F0040005904FF4707093
:101FD0000090CDE901210320CDE9031069460648B0
:101FE000FFF7ECF806B010BD0004004030380240A6
:101FF00000000240000401400008024070B50446A1
:1020000090F83C00002501280FD0012084F83C0006
:102010006AB1042A0FD0082A11D00C2A13D0012546
:10202000002084F83C00284670BD022070BD206866
:1020300001F040FCF4E7206801F06CFCF0E7206858
:1020400001F09EFCECE7206801F0CEFCE8E7000020
:102050002DE9F04F4FF000082DED028B85B00746BB
:10206000CDF80080CDF80480CDF80880CDF80C8044
:10207000CDF80080CDF80480CDF80880CDF80C8034
:10208000CDF80080CDF80480CDF80880CDF80C8024
:102090000068FE49884271D1387FDFEDFD8ADFF8A4
:1020A000FCA3FC4DDFF8F0B3AAF11409B6EE008AE8
:1020B000A5F1A00409F1180601287DD19AF80010B5
:1020C0005046491C8AF800109AF8001002297AD16B
:1020D00080F80080D9F80410491CC9F8041099F858
:1020E0000030042B03D013B1616A491C6162E949D5
:1020F000A03988694969021D042B64D2DFE803F026
:102100005D023F212968491C296090ED000AC8EE54
:10211000800ACDED000AA2619DED000A20EE080ABA
:10212000BCEEC00A10EE100A3080A168606A8842D6
:1021300049DB0220216903F0D1FB022089F800006D
:1021400041E02B685B1C2B6090ED000AC8EE800A12
:10215000CDED000AA2619DED000A20EE080ABCEE5A
:10216000C00A10EE100A3080D4E9080282422ADB4D
:10217000022003F0B3FB89F8008024E0CBE128685B
:10218000401C2860C648626890FBF2F000EE100A1E
:10219000B8EEC00A8DED000A9DED000A20EE080A97
:1021A000BCEEC00A10EE100A3080E269606A90420C
:1021B00009DB0320A161C1E710E00021B64800F06F
:1021C0008FFA0420BAE7DBF80000416A0091009919
:1021D0003288114489B2009100994163387F022806
:1021E0007CD19AF801105046491C8AF801109AF8DF
:1021F0000110022979D180F80180D9F80810491C12
:10220000C9F8081099F80110042903D011B1E26C43
:10221000521CE264042968D2DFE801F06102422323
:102220006868401C6860206CB0EC010AC8EE800A47
:10223000CDED010A20649DED010A20EE080ABCEEF6
:10224000C00A10EE100A7080216BE06C88424CDBF3
:102250000220A16B03F042FB5FF0020089F801004D
:1022600043E06868401C6860206CB0EC010AC8EE6E
:10227000800ACDED010A20649DED010A20EE080AD6
:10228000BCEEC00A10EE100A7080D4E9120181423F
:102290002BDB0220E16B03F021FB89F8018024E0B5
:1022A0006868401C68607E48E16A90FBF1F000EECF
:1022B000100AB8EEC00A8DED010A9DED010A20EE6C
:1022C000080ABCEEC00A10EE100A7080616CE06C67
:1022D00088420ADBE06B20640320BFE710E00421A2
:1022E0006D4800F0FDF90420B8E7DBF80000416A12
:1022F000019101997288114489B201910199816318
:10230000387F04287CD19AF802105046491C8AF87C
:1023100002109AF80210022979D180F80280D9F8C7
:102320000C00401CC9F80C0099F80200042803D0E6
:1023300010B1626F521C6267042868D2DFE800F0B7
:1023400061024223A868401CA860A06EB0EC010A9C
:10235000C8EE800ACDED020AA0669DED020A20EECD
:10236000080ABCEEC00A10EE100AB080A16D606FC2
:1023700088424CDB0220216E03F0B0FA5FF00200CD
:1023800089F8020043E0A868401CA860A06EB0EC89
:10239000010AC8EE800ACDED020AA0669DED020A90
:1023A00020EE080ABCEEC00A10EE100AB080D4E994
:1023B0001C0181422BDB0220616E03F08FFA89F849
:1023C000028024E0A868401CA8603548616D90FB3D
:1023D000F1F000EE100AB8EEC00A8DED020A9DED94
:1023E000020A20EE080ABCEEC00A10EE100AB08005
:1023F000E16E606F88420ADB606EA0660320BFE773
:1024000010E00821244800F06BF90420B8E7DBF85D
:102410000000416A02910299B288114489B2029186
:102420000299C163387F082875D19AF80310504685
:10243000491C8AF803109AF80310022948D180F841
:102440000380D9F810004F46401CC9F8100099F8D5
:102450000300042805D020B1D4F89C10491CC4F80E
:102460009C1004287AD2DFE800F089025734E8682B
:10247000401CE860D4F89000B0EC010AC8EE800A75
:10248000CDED030AC4F890000CE000000004014008
:1024900000247449B4DD0120D4DF012038C00120BC
:1024A00040420F009DED030A20EE080ABCEEC00A70
:1024B00010EE100AF080D4F88010D4F89C00884206
:1024C0004CDB0220D4F8881003F008FA0220F870E0
:1024D00044E0E868401CE860D4F89000B0EC010AE1
:1024E000C8EE800ACDED030AC4F890009DED030A02
:1024F00020EE080ABCEEC00A10EE100AF080D4E903
:10250000260181422ADB0220D4F88C1003F0E6F980
:1025100087F8038022E02CE0E868401CE8601A4855
:10252000E16F90FBF1F000EE100AB8EEC00A8DEDFD
:10253000030A9DED030A20EE080ABCEEC00A10EE65
:10254000100AF080D4F89410D4F89C00884205DB7F
:1025500054F88C0F6060032089F80300DBF800005A
:10256000416A03910399F288114489B20391039956
:10257000016405B0BDEC028BBDE8F08F0C2103486F
:1025800000F0AEF80420A2E740420F00D4DF0120A3
:1025900010B5040003D094F83D0010B107E001200D
:1025A00010BD002084F83C00204600F01EF80220F8
:1025B00084F83D00211D206801F0F8F8012084F81E
:1025C000460084F83E0084F83F0084F8400084F818
:1025D000410084F8420084F8430084F8440084F801
:1025E000450084F83D00002010BD704730B500253F
:1025F0000446022249B1042912D008294CD094F88B
:102600004100012853D0012030BD94F83E0001283C
:10261000F9D184F83E202068C26842F0020209E045
:1026200094F83F000128EED184F83F202068C2686A
:1026300042F00402C2600122206801F01BF9214926
:102640002068214A884201D0904203D1436C43F470
:10265000004343642068884213D0B0F1804F10D00B
:102660001A4988420DD01A4988420AD0194988422D
:1026700007D0904205D01849884202D017498842B5
:1026800004D1816801F00701062903D0016841F0F7
:1026900001010160284630BD94F840000128B2D104
:1026A00084F840202068C26842F00802C2E784F83B
:1026B00041200C2901D00125ECE72068C26842F0D6
:1026C0001002B7E700000140000401400004004090
:1026D00000080040000C004000400140001800408D
:1026E00070B50D0004464FF0000607D0042D0AD047
:1026F000082D0DD00C2D10D001263FE02068C168B8
:1027000021F002010DE02068C16821F0040108E019
:102710002068C16821F0080103E02068C16821F049
:102720001001C16000222946206801F0A3F8194B6E
:1027300041F2111120688A10984202D0164B98423B
:1027400009D1036A0B4206D1036A134203D1436CD9
:1027500023F4004343642068036A0B4206D1016AF4
:10276000114203D1016821F00101016001203DB156
:10277000042D08D0082D09D084F84100304670BDE2
:1027800084F83E00FAE784F83F00F7E784F8400059
:10279000F4E70000000001400004014070B5044669
:1027A00090F83C0000260D4601280FD0012084F847
:1027B0003C006AB1042A1DD0082A2FD00C2A3FD031
:1027C0000126002084F83C00304670BD022070BD18
:1027D000206801F06FF82068816941F0080181618B
:1027E0002068816921F004018161206881692A697A
:1027F000114311E0206801F08DF82068816941F4EF
:10280000006181612068816921F4806181612068B3
:1028100081692A6941EA02218161D2E7206801F0D9
:10282000AFF82068C16941F00801C1612068C16941
:1028300021F00401C1612068C1692A69114311E0D6
:10284000206801F0D1F82068C16941F40061C161DC
:102850002068C16921F48061C1612068C1692A6969
:1028600041EA0221C161ACE710B5040003D094F83D
:102870003D0010B107E0012010BD002084F83C00AD
:10288000204600F01EF8022084F83D00211D20683B
:1028900000F08CFF012084F8460084F83E0084F8A4
:1028A0003F0084F8400084F8410084F8420084F836
:1028B000430084F8440084F8450084F83D0000207B
:1028C00010BD70477047000010B50446022249B1A0
:1028D00004290ED0082913D094F84100012816D0FD
:1028E000012010BD94F83E000128F9D184F83E2063
:1028F0000FE094F83F000128F2D184F83F2008E06F
:1029000094F840000128EBD184F8402001E084F8DD
:1029100041200122206800F0ADFF16492068164AC8
:10292000884201D0904203D1436C43F40043436496
:102930002068884213D0B0F1804F10D00F498842F0
:102940000DD00F4988420AD00E49884207D09042E4
:1029500005D00D49884202D00C49884204D18168D3
:1029600001F00701062903D0016841F0010101606F
:10297000002010BD000001400004014000040040A0
:1029800000080040000C00400040014000180040DA
:102990002DE9F04F5C492DED088B81B0006888422D
:1029A0007ED15A4EDFF86881324671883089D8F876
:1029B000007092ED06BB814273D3401C84B2348117
:1029C0000846FDF7CAFD8A4605464AEC180B204624
:1029D000FDF7C3FD894696ED04AB044649EC190B9F
:1029E00053EC1A2B51EC1B0BFDF7D0FC83469FEDEB
:1029F000491B009153EC112BFDF7CEFC53EC192B26
:102A0000FDF7CAFC53EC192BFDF7C6FC53EC192B50
:102A1000FDF7C2FC53EC182BFDF730FD53EC182BDF
:102A2000FDF72CFD53EC182BFDF728FD41EC1B0B9B
:102A300000999FED3A1B41EC10BB4AEC195B49EC45
:102A4000184B53EC112B51EC100BFDF7A5FC53EC7C
:102A5000182BFDF7A1FC53EC182BFDF79DFC53EC54
:102A6000192BFDF70BFD53EC192BFDF707FD53EC6C
:102A70001A2BFDF7EAFB53EC1B2BFDF787FC41EC0F
:102A8000100B9FED281B86ED080B53EC112BFDF767
:102A900083FC9FED261B53EC112BFDF7EFFC01E0AF
:102AA00015E01DE09FED231B53EC112BFDF7CDFB33
:102AB000FDF77FFD80B2B080F16801290CD00229BA
:102AC0000CD0032903D17863D8F80010886301B0D3
:102AD000BDEC088BBDE8F08F7863F8E7B863F6E7E4
:102AE00051EC1B0BFDF765FD7863D8F80010886387
:102AF0001248FFF707F996ED060B002086ED040B50
:102B000030703081F060E2E70044014048C00120AD
:102B10008CDF0120000000000000004000000000E9
:102B200000000840000000000000594000000000C4
:102B3000000022400000000000407F401CE0012017
:102B40007047704770470000F8B501680446086890
:102B5000CA684B6910F00F0F4FF0000559D003F011
:102B6000010602F49077374365D0C10705D0D1053F
:102B700003D5216C41F001012164410705D5D90736
:102B800003D0216C41F002012164810705D5D907EA
:102B900003D0216C41F004012164010707D502F044
:102BA0002001314303D0216C41F008012164216CE4
:102BB00000293AD0800604D5900602D5204600F0C0
:102BC00094FF20684069216CC0F38010090700D48D
:102BD00060B3204600F062FF20684069400621D5BE
:102BE0002068143050E8001F21F0400140E8001236
:102BF000002AF5D1A06BA8B16C490165A06BFEF766
:102C000064FA002811D0A06B016D01B0BDE8F0405E
:102C1000084783060FD593060DD52046BDE8F8403A
:102C200000F063BF2046FFF78DFFF8BD2046FFF799
:102C300089FF2564F8BD266B2023012E79D1C606B5
:102C400077D5D60675D5086848680090486940066B
:102C500040D5A16B086840680004000CEAD0A28D42
:102C60008242E7D9E085C869B0F5807F2DD0206821
:102C70000C3050E8001F21F4807140E80012002A57
:102C8000F5D12068143050E8001F21F0010140E820
:102C90000012002AF5D12068143050E8001F21F0FE
:102CA000400140E80012002AF5D184F83E30256347
:102CB00020680C3050E8001F21F0100140E800129D
:102CC000002AF5D1A06BFEF7B7F9A08DE18D401A6F
:102CD00081B229E0A08DE18D401A81B2E08D0028FB
:102CE000A8D00029A6D020680C3050E8002F22F48C
:102CF000907240E80026002EF5D12068143050E88C
:102D0000002F22F0010240E80026002EF5D184F8C1
:102D10003E30256320680C3050E8002F22F010026E
:102D200040E80023002BF5D12046FFF70AFFF8BD4D
:102D3000FFE705062BD5150629D594F83D00212877
:102D4000F5D1A068B0F5805F01D12069B0B1206AEB
:102D5000411C2162216800784860E08C401E00041C
:102D6000000CE084E3D12068C16821F08001C160DB
:102D70002068C16841F04001C160D8E7206A00883E
:102D8000C0F308004860206A801C2062E5E7400626
:102D9000CDD55006CBD5CA68204622F04002CA6085
:102DA00084F83D3000F085FAC1E700008D3A000854
:102DB00070B5040004D094F83D00002510B106E081
:102DC000012070BD84F83C50204600F023F82420F8
:102DD00084F83D002068C16821F40051C16020469C
:102DE00000F0E4FE2068016921F49041016120684F
:102DF000416921F02A0141612068C16841F4005114
:102E0000C1602564202084F83D0084F83E00002045
:102E100070BD0000F0B587B0044614216846FDF788
:102E200009FA5A49584823680024584A103902259B
:102E30000326834233D1106840F48010106010687C
:102E400000F480100590086840F0040008600868ED
:102E500000F004000590086840F008000860086869
:102E600002AB00F0080005908814CDE900050827A2
:102E700083E8D00069464648FEF7A0F90420CDE972
:102E8000000502AB694683E8D0004248FEF796F998
:102E9000002211463520FEF7FDFA352027E0DFF845
:102EA000F8C007273D48634525D1384A121D1368ED
:102EB00043F010031360126802F0100205920A68D2
:102EC00042F001020A60096802AA01F001010591BD
:102ED0004FF4C061CDE9001582E8D0006946FEF7E5
:102EE0006DF9002211462520FEF7D4FA2520FEF7C1
:102EF000C3FA07B0F0BDDFF8A8C063451FD113685F
:102F000043F400331360126802F4003205920A6839
:102F100042F001020A60096802AB01F0010105916B
:102F20000C21CDE9001583E8D0006946FEF746F98B
:102F3000002211462620FEF7ADFA2620D7E71948D1
:102F40008342D6D1106840F480201060106800F4ED
:102F500080200590086840F002000860086802AB15
:102F600000F0020005904FF44060CDE9000583E8D1
:102F7000D00069460C48FEF721F9002211462720AF
:102F8000FEF788FA2720B2E70050004040380240A0
:102F900000080240000C0240001001400000024006
:102FA00000440040004800400004024090F83E30D9
:102FB000202B0ED159B152B190F83C30012B08D0E2
:102FC000012380F83C300023036300F075BE01202C
:102FD00070470220704700002DE9F05F0646006848
:102FE00078490127784C00254FF0020A4FF0030B77
:102FF000884240D1DFF8D491DFF8D481B9F80000DD
:10300000A8F80000312812D0322812D0332813D06B
:10301000342814D0352814D0362814D0372814D0AA
:10302000382814D0392814D0612815D016E027701C
:1030300014E084F800A011E084F800B00EE0042051
:1030400008E0052006E0062004E0072002E0082052
:1030500000E00920207001E05E48077021785EA042
:1030600000F098FEA9F80050A8F800500122574936
:103070005D48FFF79BFF5D49DFF850813068A8F19C
:103080000608884224D1B8F8021040460A0418D431
:1030900008F101024B04127804D50A2A0FD141F439
:1030A000004129E00D2A25D0C1F30D03DFF840C10E
:1030B000491C89B20CF803204180C72901D9A8F81E
:1030C0000250424948480122491F4430FFF76EFF31
:1030D0004849306888422DD1B8F8041040460A04A7
:1030E00021D43A4A4B04A2F1060212780AD50A2AE0
:1030F00017D104E041F48041A8F80210E1E741F45F
:10310000004137E00D2A33D0C1F30D03DFF8E0C0F2
:10311000491C0CF1C80C89B20CF803208180C72926
:1031200001D9A8F8045029492F480122891F883065
:10313000FFF73CFF30493068884240D1234A2F498D
:10314000921C10880880312817D0322817D03328D5
:1031500018D0342819D0352819D0362819D0372856
:1031600019D0382819D0392819D061281AD01BE075
:1031700041F48041A8F80410D5E7277014E084F8E2
:1031800000A011E084F800B00EE0042008E0052063
:1031900006E0062004E0072002E0082000E0092005
:1031A000207001E00B48077015800D80BDE8F05FCE
:1031B00006490D480122891C4438FFF7F7BEBDE8D7
:1031C000F09F00000010014062C1012076C1012083
:1031D0004CDE012040C101206C6F636174696F6E29
:1031E000203D2025640D0A0038E201200044004003
:1031F00064E001200048004000500040B0DE0120A3
:103200002DE9F843044690F83D001F4616460D464A
:1032100020284CD1C5B1BEB194F83C00012846D05D
:10322000012084F83C004FF00008C4F840802120C1
:1032300084F83D00FEF7C0F8A6848146E684A068C5
:10324000B0F5805F03D004E00120BDE8F883206979
:1032500028B12E465FF0000584F83C800EE0002681
:10326000FAE78021204600F044FDA0B9AEB116F87F
:10327000010B21684860E08C401EE084E08C4B46E6
:103280004FF0000200970028EBD14FF0400120469C
:1032900000F02FFD30B10320D7E735F8020BC0F363
:1032A0000800E6E7202084F83D000020CDE702205A
:1032B000CBE77047FEE70000104810B50E490160EB
:1032C0000321416000214FF400228160C0E9031214
:1032D0004FF4401242610176012242768176C17636
:1032E00001774177FDF7C9FD002803D0BDE8104004
:1032F000FDF74DBC10BD00000068004014DF012048
:1033000000B587B01C216846FCF794FF16484FF0C3
:103310002041102201601549416004218160002193
:10332000C160C0E904128161C16113020162C0E998
:103330000913C16201634163816341640F20082363
:103340000090CDE90103CDE903021120CDE905018B
:10335000002269460448FEF76FFB002801D0FDF704
:1033600016FC07B000BD00003CDF0120040100A0F6
:1033700070B586B014216846FCF75CFF2A4800242B
:10338000016841F004010160016801F00401059148
:10339000016841F020010160016801F02001059100
:1033A000016841F080010160016801F08001059130
:1033B000016841F001010160016801F0010105911E
:1033C000016841F040010160016801F04001059190
:1033D000016841F010010160016801F010010591E0
:1033E000016841F002010160016801F002010591EC
:1033F000016841F00801016000680C4E00F008000F
:103400004FF4F0450590002229463046FDF7CEFFE7
:1034100001200095CDE90104694630460394FDF78B
:10342000CDFE06B070BD00003038024000180240EA
:103430000B4810B50949016054214160002140F258
:10344000CF72C0E9021201618161FEF7ADFB002875
:1034500003D0BDE81040FDF79ABB10BD0044014009
:103460001CE0012010B58EB0002407940894099444
:103470000A940B941C2168460C94FCF7DBFE22484E
:10348000204901605321C0E9011444F61F61C0E9DD
:1034900003148461FEF788FB08B1FDF778FB4FF455
:1034A0008050079007A91848FEF744FC08B1FDF7C3
:1034B0006EFB1548FFF7D8F908B1FDF768FB0B94D0
:1034C0000BA911480C94FEF727FB08B1FDF75FFB31
:1034D0006020CDE900040294002269460A48049461
:1034E000FFF75CF908B1FDF752FB04226946064874
:1034F000FFF754F908B1FDF74AFB0348FEF73CFD1E
:103500000EB010BD000400408CDF012010B596B055
:1035100000240F9410941194129413941C21684663
:103520001494FCF787FE202107A8FCF783FE34489B
:1035300032490160A721C0E901144FF6FF71C0E9CB
:10354000031444618461FEF72FFB08B1FDF71FFBF4
:103550004FF480500F900FA92948FEF7EBFB08B1FC
:10356000FDF715FB2648FFF713F808B1FDF70FFB31
:10357000139413A922481494FEF7CEFA08B1FDF76C
:1035800006FB3020CDE900040294039404940594D2
:10359000002269461A480694FEF730FD08B1FDF78F
:1035A000F6FA042269461648FEF728FD08B1FDF731
:1035B000EEFA082269461248FEF720FD08B1FDF731
:1035C000E6FA0C2269460E48FEF718FD08B1FDF731
:1035D000DEFA0794089409944FF400500A94CDE958
:1035E0000B4007A906480E94FEF76CFA08B1FDF7E8
:1035F000CEFA0348FEF7C0FC16B010BD000401402F
:10360000D4DF01200C4810B50A4901604FF4E131C4
:103610004160002181600C22C160C0E90412816117
:10362000C161FFF7C5FB002803D0BDE81040FDF7DE
:10363000AEBA10BD00500040F4E101200C4810B5B6
:103640000A4901604FF4E1314160002181600C22A0
:10365000C160C0E904128161C161FFF7A9FB0028C4
:1036600003D0BDE81040FDF792BA10BD0010014034
:1036700038E201200C4810B50A4901604FF4E131ED
:103680004160002181600C22C160C0E904128161A7
:10369000C161FFF78DFB002803D0BDE81040FDF7A6
:1036A00076BA10BD004400407CE201200C4810B501
:1036B0000A4901604FF4E1314160002181600C2230
:1036C000C160C0E904128161C161FFF771FB00288C
:1036D00003D0BDE81040FDF75ABA10BD00480040C5
:1036E000C0E20120FEE7FEE770477047FDF76ABEC3
:1036F00030B593B030216846FCF79CFD14210CA82E
:10370000FCF798FD1D480025016841F080510160DB
:10371000006800F0805011901948016841F4804120
:1037200001600068022400F48040119001200390A1
:1037300010200490009406940820CDE90750A8209A
:10374000CDE9090404200B906846FDF7BFFF08B1DE
:1037500072B6FEE70CA90F2081E831004FF4A050AB
:103760000F904FF48050109005210CA8FDF7C4FE77
:10377000002801D072B6FEE713B030BD40380240D9
:10378000007000400248016841F470010160704718
:1037900088ED00E00148FEF73CBB00001CE0012082
:1037A0000148FEF736BB0000D4DF0120F0B5026807
:1037B000254C264D264E274F274B4FF0804CA042DC
:1037C00009D0604507D0A84205D0B04203D0B84226
:1037D00001D0984204D122F0700E4A6842EA0E02EB
:1037E000A0421BD0604519D0A84217D0B04215D0D6
:1037F000B84213D0984211D0184DA8420ED0184D9F
:10380000A8420BD0174DA84208D0174DA84205D0AA
:10381000164DA84202D0164DA84203D122F440759D
:10382000CA682A434D6922F080022A4302608A68EE
:10383000C2620A688262A04201D0984201D109693D
:10384000016301214161F0BD00000140000400401E
:1038500000080040000C004000040140004001400E
:10386000004401400048014000180040001C004096
:103870000020004010B501F01F030121046A9940A7
:103880008C430462016A9A401143016210BD10B575
:10389000846842EA032224F47F440A43224382607C
:1038A00010BD826822F070020A4342F00701816075
:1038B00070470000F0B5026A22F001020262036A5A
:1038C00042688469124E24F073050C682C4323F07F
:1038D00002058B682B430D4DA84201D0B04205D1A3
:1038E00023F00807CB683B4323F00403A84201D030
:1038F000B04205D14D6922F4407215438A692A43CA
:1039000042608461496841630362F0BD0000014088
:1039100000040140F0B5026A22F010020262026A5D
:10392000436884690D6824F4E64444EA05248D68FC
:1039300022F0200242EA05120F4D104EA84201D09B
:10394000B04206D1CF6822F0800242EA071222F08C
:103950004002A84201D0B04207D14D6923F4406330
:1039600043EA85038D6943EA8503436084614968BE
:1039700081630262F0BD00000000014000040140CC
:10398000F0B5026A22F480720262026A4368C46976
:1039900022F4007224F073050C68124E2C438D68DB
:1039A00042EA05220E4DA84201D0B04206D1CF68AE
:1039B00022F4006242EA072222F48062A84201D087
:1039C000B04207D14D6923F4405343EA05138D6992
:1039D00043EA05134360C4614968C1630262F0BDF4
:1039E000000001400004014030B5026A22F4805218
:1039F0000262046A4268C3690D6823F4E64343EA3D
:103A000005238D6824F4005444EA0534084DA84287
:103A100002D0084DA84204D14D6922F4804242EA06
:103A200085124260C36149680164046230BD0000D0
:103A3000000001400004014010B5036A046A24F04C
:103A400001040462846924F0F00444EA021423F0BF
:103A50000A020A438461026210BD10B5036A23F0B2
:103A6000100303628369046A23F4704343EA023259
:103A700024F0A00343EA01118261016210BD00003D
:103A80000148FFF761B80000F4E1012010B5806B38
:103A90000021C185C184FFF755F810BD01680C31C4
:103AA00051E8002F22F4907241E80023002BF5D159
:103AB0000168143151E8002F22F0010241E800238F
:103AC000002BF5D1016B012909D101680C3151E8B6
:103AD000002F22F0100241E80023002BF5D1202115
:103AE00080F83E1000210163704708B590F83E1041
:103AF000222901D0022008BD82684FF480539A42E7
:103B000001D1016921B1816A9A421BD04AB10AE010
:103B10000268816A5268C2F308020A80816A891CBD
:103B200008E0026972B10268526802F07F020A700E
:103B3000816A491C8162C18D491E0904090CC18535
:103B400003D019E002685268F1E70168CA6822F000
:103B50002002CA600168CA6822F48072CA600168E3
:103B60004A6922F001024A61202180F83E10016B6F
:103B7000012903D0FFF730FA002008BD00210163BE
:103B800001680C3151E8002F22F0100241E80023B7
:103B9000002BF5D101680A68D20602D50A68496887
:103BA0000091818DFEF7CDFFE6E7000070B5044679
:103BB00000680169E26821F4405111430161216903
:103BC000A068E26908436169114308432168CA6833
:103BD00049F20C639A430243CA6020684169A269B2
:103BE00021F440711143416131492068884202D07B
:103BF0003049884202D1FDF729FD01E0FDF716FDAD
:103C0000E2690023192164253226B2F5004F62686B
:103C100028D0A0FB0101930F9200FCF7D3FA0146D4
:103C2000B0FBF5F06FF01802504301EB800006EB9B
:103C30000010B0FBF5F000F0F002B1FBF5F002EB84
:103C40000012B1FBF5F06FF01803584301EB800050
:103C500006EB0010B0FBF5F000F00F0021681044F7
:103C6000886070BDA0FB010192185B41FCF7AAFAC5
:103C70000146B0FBF5F00201B1FBF5F06FF018035F
:103C8000584301EB800006EBC000B0FBF5F000F0FC
:103C9000F80002EB4002B1FBF5F0584301EB800065
:103CA00006EBC000B0FBF5F000F00700D6E700001F
:103CB000001001400014014081628285C28500210C
:103CC0000164222280F83E2080F83C10016921B175
:103CD0000168CA6842F48072CA6001684A6942F0A9
:103CE00001024A610068C16841F02001C160002002
:103CF00070472DE9F041984617460E460446069D4A
:103D000027E0681C25D02DB1FDF756FBA0EB08007D
:103D1000A8421ED920680C3050E8001F21F4D07151
:103D200040E80012002AF5D12068143050E8001F46
:103D300021F0010140E80012002AF5D1202084F88A
:103D40003D0084F83E00002084F83C000320BDE8DC
:103D5000F0812068006836EA000004D00020B842F4
:103D6000CFD00020F3E70120F9E700000148FEF77B
:103D7000EBBE000038E201200148FEF7E5BE00007E
:103D80007CE201200148FEF7DFBE0000C0E2012016
:103D9000FEE700000FB4054B10B503A9044A0298D2
:103DA00000F0D8FF10BC5DF814FB0000E1560008DD
:103DB0008CC1012003B401984100009850EAC12051
:103DC00018BF04204A0D18BF40F0010040F2FF72F6
:103DD000B2EB515F08BF40F00200012808BF052088
:103DE00002B070470907090E002804DB00F1E0204B
:103DF00080F80014704700F00F0000F1E02080F818
:103E0000141D7047000000002DE9F0412DED020B5C
:103E10009FED3D0B2DED028B9FED3D8BDDE90254B7
:103E2000C4F30A50A0F2FF36142E37DA002E18DA47
:103E300053EC102B9DED020B51EC100BFCF705FA27
:103E400053EC182BFCF7E2FB57D2002CBCBF4FF011
:103E50000044002551DB54EA050018BF2E4C1BD14D
:103E60004BE02E4820FA06F704EA070028431FD04B
:103E700053EC102B9DED020B51EC100BFCF7E5F908
:103E800053EC182BFCF7C2FB37D2002C03DD4FF4A8
:103E90008010F0400444BC4300252EE0332E07DCA4
:103EA000A6F114004FF0FF3121FA00F73D4206D190
:103EB0009DED020BBDEC028B02B0BDE8F08153EC2E
:103EC000102B9DED020B51EC100BFCF762FA53EC3A
:103ED000182BFCF79BFB10D2002C0DDD142E08BF15
:103EE000641C09D0C6F13400012101FA00F0284415
:103EF000A84238BF641C0546BD43CDE902549DED80
:103F0000020BD7E7000000009C7500883CE4377E78
:103F100000000000000000000000F03FFFFF0F0065
:103F20002DED020B019820F0004001909DED000B5B
:103F300002B07047000000002DE9F04D2DED040B9C
:103F40002DED0E8B96B0DDE92550279CDDF890A075
:103F500025F0004624F00048BAF1000F14BF0121FB
:103F6000002101EB4502FC4953184A1093422AD321
:103F7000002814BF0123002303EB44030B44F7493B
:103F80008B4220D358EA00019FEDF59B76D0DFF8F5
:103F9000D8B35D4503D1BAF1000F05D188E0BAF17D
:103FA000000F08BF002100D0012101EB450111F5F0
:103FB000001F08D8002814BF0121002101EB440193
:103FC00011F5001F0BD99DED261B9DED240B16B09E
:103FD000BDEC0E8B04B0BDE8F04D00F069BE0027CB
:103FE000002DBCBFE149884521DAE1498845A8BFD9
:103FF00002271CDAC3451ADCDE4901EB28511429DB
:1040000008DDC1F1340220FA02F101FA02F2824223
:104010000DD108E058B9C1F1140228FA02F101FAF1
:1040200002F2424503D101F00101C1F1020756EA53
:104030000A0124D1002C22DA002D18BF022F01D052
:10404000012F0AD0022000F07FFE16B0BDEC0E8BCF
:1040500004B0BDE8F04D00F013BE022000F074FE85
:1040600000F00EFE51EC100B81F0004141EC100B02
:1040700016B0BDEC0E8B04B0BDE8F08D18E09FEDDE
:10408000BEAB9FEDBF8B002871D1B848804522D1CF
:1040900005F1804010F5801008BFBAF1000F07D07D
:1040A000B3450ADC002CA8BF9DED260BE0DA0DE03D
:1040B000B0EE490AF0EE690ADAE7002C06DA9DED67
:1040C000260B51EC100B81F000416FE0AE487844B4
:1040D00090ED000BCCE7D8454DD1002C48DA2EB13D
:1040E00086423AD1BAF1000F42D126E0BAF1000F70
:1040F00013D0022000F028FE00F0F6FD8DED020B3B
:104100009DED240B8DED000B10EE900A039961F3E9
:104110001E0003909DED020BAAE78DED02AB9DED15
:10412000240B1AEE901A10EE900A8DED000B61F33D
:104130001E0003909DED020B9AE78DED028B9DED25
:10414000240B18EE901A10EE900A8DED000B61F31F
:104150001E0003909DED020B8AE709DA9DED240B0A
:1041600051EC190B53EC102BFCF788F91EE020E002
:104170009DED240B7CE786421BDAB4F1804F0DD015
:10418000A4F10050B0F1FF5013D1002D11DB9DEDD3
:10419000240B51EC100B02F0C7FB07E09DED240B44
:1041A00053EC102B51EC100B00F0C2BC41EC100B87
:1041B0005EE79DED240B51EC100B01F085FABAF18E
:1041C000000FCDE90E0142D19FED710B46B3A6F170
:1041D000E040B0F17F600CD05E4538D1002D00DAB0
:1041E000A7B3022F0CBF01204FF0FF30FCF734FBC8
:1041F000DCE7002D01DD002C0DDA002D01DD002CA7
:104200001FDB002D16DA002C14DB012F08BF9FEDF9
:10421000620B3FF42DAFB0EE4A0AF0EE6A0A27E7D0
:10422000022F18BF002D0CD0012F0AD1002DFFF650
:104230001FAF06E0002DB8BF002C08DA012F3FF4B5
:1042400017AFB0EE480AF0EE680A11E71BE0012054
:1042500000EBE57050EA070115D0791EB0EE498AEF
:10426000F0EE698A084308BF9FED4D8B4E4800254C
:10427000804570DD4D494E48884514DDB0420DDB68
:10428000002C19DB2FE0012000F05EFD16B0BDEC24
:104290000E8B04B0BDE8F04D00F016BDB34502DC56
:1042A000002C09DC1FE0864202DA002C1BDA03E056
:1042B0005E452BDD002C16DD022000F045FD00F0F0
:1042C00013FD8DED020B53EC1A2B51EC180BFCF780
:1042D00063F8CDE900010399019861F31E00039092
:1042E0009DED020BC4E6022000F02EFD00F00CFD57
:1042F00010EE901A18EE900A8DED020B8DED008BEA
:1043000061F31E0003909DED020BB1E69DED0E0BD7
:1043100053EC192B51EC100BFCF738F89FED260BE2
:10432000CDE9080153EC102B9DED080B51EC100B5F
:10433000FCF732F89FED221B53EC112BFCF729F808
:104340009DED081B53EC112BFCF726F89FED1E1B6F
:1043500053EC112B3CE08CE0FFFF1F00FFFF0F0030
:10436000000000000000F03F0000F03F0000F07F80
:104370000000404301FCFFFF000000000000F07F50
:104380000000000000000000E62E00000000000019
:104390000000000000000080000000000000F0FFAE
:1043A000000000000000F0BF0000E0410000F0430A
:1043B000FFFFEF3F00000000000000000000D03FC2
:1043C000555555555555D53F000000000000E03FBC
:1043D000FBF7DFFF9DED080B41EC1A0B53EC102BA4
:1043E00051EC100BFBF7D8FF53EC1A2BFBF7D4FF63
:1043F00041EC1A0B9FEDFE0B53EC102B9DED080BBF
:1044000051EC100BFBF7C8FF41EC1B0B9FEDFA0BB7
:1044100051EC1A0B53EC102BFBF7BEFF41EC1A0BBF
:104420009FEDF70B53EC102B9DED080B51EC100B8F
:10443000FBF7B2FF53EC1A2BFBF7A8FF41EC1A0B6A
:1044400051EC1B0B53EC1A2BFBF7FFFE0690CDE94A
:1044500006519DED060B53EC1B2B51EC100BFBF79B
:1044600095FF53EC1A2BFBF794FF41EC100B00F077
:10447000A1B90020B6F5801F0EDA9FEDE30B53ECD7
:10448000102B9DED0E0B51EC100BFBF785FFCDE9CA
:104490000E016FF034000E4600EB2650A0F2FF37FD
:1044A000C6F31300DA4940F07F6646F04056884272
:1044B000D8BF002408DDD7498142C8BF012403DCEE
:1044C0000024A6F580167F1CD348784400EBC40076
:1044D0000F9690ED00CB9DED0E0B53EC1C2B51EC89
:1044E000100BFBF753FF9DED0E0B41EC1B0B53EC38
:1044F0001C2B51EC100BFBF7A8FE41EC100B51EC00
:10450000190B53EC102BFBF7B9FF41EC1D0B51ECD1
:104510001B0B53EC1D2BFBF73FFF41EC1A0BBF4865
:104520008DED10AB7844109590ED000B4FF00050DE
:1045300040EA660000EB84408DED080B00F500209A
:1045400009909DED080B53EC1C2B51EC100BFBF765
:104550001DFF9DED0E1B53EC112BFBF71AFF41ECD9
:10456000100B53EC102B9DED100B51EC100BFBF7C7
:1045700013FF9DED080B41EC1C0B53EC102B9DED34
:10458000100B51EC100BFBF707FF53EC1B2BFBF749
:1045900000FF53EC1C2BFBF7F9FE53EC1D2BFBF734
:1045A000FBFE41EC1C0B53EC1A2B51EC1A0BFBF7E6
:1045B000F3FE41EC1B0B9A480621B0EE4B0AF0EEDD
:1045C0006B0A784400F0E0FAB0EE401AF0EE601AA0
:1045D000B0EE41DAF0EE61DA53EC1B2B51EC1B0B21
:1045E000FBF7DAFE53EC1D2BFBF7D6FE9DED100B0F
:1045F00041EC1B0B53EC1A2B51EC100BFBF725FE77
:1046000053EC1C2BFBF7C8FE53EC1B2BFBF71DFEDA
:104610009DED100B41EC1B0B53EC102B51EC100BD0
:10462000FBF7BAFE41EC1D0B9FED7FEB53EC1E2B0D
:10463000FBF70BFE53EC1B2BFBF707FE0890CDE9B5
:1046400008519DED080B53EC1E2B51EC100BFBF7A2
:104650009DFE53EC1D2BFBF799FE53EC1B2BFBF738
:1046600098FE9DED080B41EC1D0B53EC102B9DEDBE
:10467000100B51EC100BFBF78FFE41EC1B0B53ECB6
:104680001A2B51EC1D0BFBF787FE9DED080B41EC3F
:104690001A0B53EC102B51EC1C0BFBF77DFE53EC6B
:1046A0001A2BFBF7D2FD41EC1A0B51EC1B0B53EC10
:1046B0001A2BFBF7CAFD0C90CDE90C519DED0C0BAC
:1046C00053EC1B2B51EC100BFBF760FE53EC1A2B39
:1046D000FBF75FFE41EC1B0B9FED550B53EC102BD2
:1046E0009DED0C0B51EC100BFBF756FE41EC1A0B39
:1046F0009FED510B51EC1B0B53EC102BFBF74CFEB9
:1047000041EC1B0B9FED4E0B53EC102B9DED0C0B56
:1047100051EC100BFBF740FE53EC1B2BFBF795FD08
:1047200041EC100B4848784400EBC40090ED001BAE
:1047300051EC100B53EC112BFBF787FD41EC1B0BDD
:104740003846FCF789F8CDE9080153EC1B2B51ECF6
:104750001A0BFBF77AFD41EC100B3C48784400EB58
:10476000C40090ED00CB51EC100B53EC1C2BFBF76D
:104770006CFD9DED081B53EC112BFBF766FD0690BD
:10478000CDE906519DED080B53EC102B9DED060B6A
:1047900051EC100BFBF7FAFD53EC1C2BFBF7F6FD6D
:1047A00053EC1A2BFBF7F2FD53EC1B2BFBF7F1FD3F
:1047B00041EC100B9DED261B53EC102B8DED001BD7
:1047C00000959DED260B51EC100BFBF7E5FD9DEDE3
:1047D000000B41EC1A0B53EC102B9DED260B51EC0A
:1047E000100BFBF7D3FD9DED061B53EC112B2FE0B7
:1047F000000000604715F73FFE822B654715F73F25
:1048000044DF5DF80BAE543E000000000000404362
:104810008E9803007AB60B00622A0000902A0000EE
:104820009A2900000000000000000000000008407D
:10483000000000E009C7EE3FFD033ADC09C7EE3F88
:10484000F5015B14E02F3EBE26280000E0270000A3
:10485000FBF7A2FD53EC1A2BFBF7F7FC9DED060BC3
:1048600041EC1A0B53EC102B9DED000B51EC100B8F
:10487000FBF792FDCDE90C019DED0C0B51EC1A0BF1
:1048800053EC102BFBF7E1FCCDE902010C46AA49E1
:104890008C422FDB611A084318D19DED0C0B53ECB1
:1048A000102B9DED020B51EC100BFBF76FFD41EC53
:1048B0001B0B9FEDA30B51EC1A0B53EC102BFBF7CA
:1048C000C4FC53EC1B2BFBF7A1FE2DD2022000F001
:1048D0003BFA00F009FA10EE901A18EE900A8DEDEE
:1048E000020B8DED008B61F31E0003909DED020B1A
:1048F000FFF7BEBB944A24F00041914214D3934980
:10490000214408437FF4EFAC9DED0C0B53EC102BCE
:104910009DED020B51EC100BFBF738FD53EC1A2BFD
:10492000FBF774FE7FF6DFAC24F000408849894A2B
:10493000002601EB205182422BDA481C4FF48011F3
:1049400021FA00F02044844AC0F30A517A44A1F2CB
:10495000FF3192ED000B814A8DED080BCA4020EA31
:104960000202C0F3130040F48010C1F1140120FAD8
:1049700001F60992002CB8BF76429DED080B53EC6E
:10498000102B9DED0C0B51EC100BFBF7FFFCCDE950
:104990000C019DED0C0B51EC1A0B53EC102BFBF79B
:1049A00054FC9FED6F0B0890CDE9085153EC102B90
:1049B0009DED080B51EC100BFBF7EEFC41EC1B0BD3
:1049C0009FED690B53EC102B9DED080B51EC100B78
:1049D000FBF7E2FC9DED0C0B41EC1C0B53EC102B98
:1049E0009DED080B51EC100BFBF7D0FC53EC1A2B90
:1049F000FBF7CFFC9FED5E1B53EC112BFBF7CCFCC0
:104A000053EC1C2BFBF721FC41EC1A0B51EC1B0B5C
:104A100053EC1A2BFBF719FCCDE902019DED020BBB
:104A200053EC1B2B51EC100BFBF7B0FC53EC1A2B87
:104A3000FBF7AFFC9DED020B41EC1A0B53EC102B76
:104A400051EC100BFBF7A8FCCDE908014A489DED9D
:104A5000080B0521784400F097F89DED081B51ECF8
:104A6000100B53EC112BFBF797FC9DED021B53EC45
:104A7000112BFBF78EFCCDE906019DED020B53ECEB
:104A80001A2B51EC100BFBF787FC53EC1A2BFBF79E
:104A9000DCFB9FED3B0B41EC1A0B53EC102B9DED17
:104AA000060B51EC100BFBF771FC9DED060B41EC76
:104AB0001B0B53EC102B9DED020B51EC100BFBF775
:104AC0006BFC53EC1B2BFBF7D9FC53EC1A2BFBF7BD
:104AD0005DFC9DED021B53EC112BFBF757FC53ECD7
:104AE000192BFBF756FCCDE9020101EB065001152D
:104AF0000029C8BF039015DC9DED020B324651EC36
:104B0000100BFBF792FEFFF755F9042808BF00F0E1
:104B1000FBF832469DED020B51EC100BFBF785FEC6
:104B2000CDE902019DED020B51EC180B53EC102B5B
:104B3000FBF732FCFFF73ABB00009040000000009A
:104B4000FE822B654715973C00CC904000346F3FA8
:104B500001FCFFFF0000E03F68260000FFFF0F00A0
:104B600000000000432EE63F396CA80C615C20BEBB
:104B7000EF39FAFE422EE63F382500000000000023
:104B8000000000000000004070B504462DED028BCF
:104B90004D1E00EBC500B0EE408AF0EE608A90ED4D
:104BA000000B35F0060017D053EC182B51EC100B0E
:104BB000FBF7F2FB41EC100B6D1E04EBC50090ED12
:104BC000001B51EC100B53EC112BFBF73EFB41EC9F
:104BD000100B35F00600E7D1022D36D0042D1CD085
:104BE000062D1CBFBDEC028B70BD53EC182B51EC95
:104BF000100BFBF7D1FB94ED0A1B53EC112BFBF7C9
:104C000024FB53EC182BFBF7C7FB94ED081B53EC6C
:104C1000112BFBF71AFB41EC100B53EC182B51EC4A
:104C2000100BFBF7B9FB94ED061B53EC112BFBF7B4
:104C30000CFB53EC182BFBF7AFFB94ED040B53EC80
:104C4000102BFBF702FB41EC100B53EC182B51EC33
:104C5000100BFBF7A1FB94ED021B53EC112BFBF7A0
:104C6000F4FA53EC182BFBF797FB94ED001B53EC75
:104C7000112BFBF7EAFABDEC028B41EC100B70BD77
:104C80009FED070B10B553EC102B9FED070B51EC6C
:104C9000100BFBF7F3FB41EC100B10BD0000000004
:104CA0000000000000000000000000000000F03FD5
:104CB00010B553EC112B51EC100BFBF7C6FA41EC7D
:104CC000100B10BD000000009FED050B10B553EC5C
:104CD000102B51EC100BFBF7D1FB41EC100B10BD6E
:104CE00000000000000000009FED050B10B553EC24
:104CF000102B51EC100BFBF74FFB41EC100B10BDD0
:104D000000000000000000709FED050B10B553EC93
:104D1000102B51EC100BFBF73FFB41EC100B10BDBF
:104D2000000000000000001002E008C8121F08C1C7
:104D3000002AFAD170477047002001E001C1121F1C
:104D4000002AFBD17047000001490860704700004D
:104D500090C101202DE9FF4F89B09B4604460025F4
:104D600006E025280BD05A460B999047641C6D1C11
:104D700020780028F5D10DB02846BDE8F08F002737
:104D8000B8460122474900E0074314F8013F203BA1
:104D900002FA03F00842F7D120782E2819D114F82E
:104DA000010F47F004072A280ED06FF02F02207859
:104DB000A0F1300109290CD808EB880102EB410170
:104DC00000EB0108641CF2E70A98641C50F8048B9D
:104DD0000A9020780028CED0642808D0692806D010
:104DE00075281ED05A460B9990476D1C58E00A99B9
:104DF0004FF00A0901C90A91002802DA40422D2128
:104E000002E0390504D52B218DF82010012103E0A3
:104E1000F90704D02021F7E78A4608AE0DE000210B
:104E2000FAE70A994FF00A0901C90A91F7E74946DA
:104E3000FBF720FC303106F8011D0028F7D1ADEB5F
:104E4000060000F12009780701D44FF00108C84599
:104E500002DDA8EB090000E000208046002706E004
:104E600008A85A46C05D0B9990476D1C7F1C57459A
:104E7000F6DB04E030205A460B9990476D1CB8F1E0
:104E80000001A8F10108F5DC05E016F8010B5A460F
:104E90000B9990476D1CB9F10001A9F10109F4DCEF
:104EA000641C65E709280100034800210160416096
:104EB0008160C16070470000B4DD01202DE9F04F32
:104EC000531E2DED088B85B0DEB24FF0000A074669
:104ED0004FF44864521E0D464FF448636043D2B20B
:104EE000594302EB82043C23C44ACDF800A0CDF81C
:104EF00004A0CDF808A0CDF80CA0AF4208DD91FBCE
:104F0000F3F190FBF3F04FF0010A42F8341005E0A2
:104F100090FBF3F042F8340091FBF3F002EBC40194
:104F200002EBC407486052F834107868F6EE009A35
:104F3000084400EBD07020EE299AC1EB600000EE2F
:104F4000100AF0EE000AA346B8EEC00A154619EEA4
:104F5000100A20EE200A69EE090A80EE201AF0EE0F
:104F6000C18AFBF73FFB41EC100B9FEDA51BFEF741
:104F7000E3FFB0EE40AAF0EE60AA18EE900AFBF74D
:104F800031FB53EC1A2BFBF707FA9FED9F1B53ECF9
:104F9000112BFBF773FA55F8344041EC1A0B00EE75
:104FA000104AB8EEC00A20EE090A10EE100AFBF70C
:104FB00019FB53EC1A2BFBF748F9FBF7DBFA814698
:104FC0007868204400EE100AF8EEC00A00EE109A4D
:104FD000B8EEC00A10EE890ABDEEC00A10EE101A33
:104FE00001EB0904E00700D0641CA1000220091DA8
:104FF00000F0A2FCE8464DF82600E8B3F1EE080AFE
:1050000080EEA80A10EE100AFBF7ECFA41EC100B48
:105010009FED7F1BFEF790FF51EC100BFBF70EFB93
:1050200008EE100A18EE100AFBF7DCFA41EC100B40
:105030009FED79ABB0EE4A1AF0EE6A1AFEF77CFFEC
:1050400068EEA98AB0EE40BAF0EE60BA18EE900AA7
:10505000FBF7C8FA53EC1B2BFBF79EF9FBF7EEFAB4
:10506000664900EE100A51F83B0000EE900AF8EE97
:10507000E00A30EE800A00E00EE058F8260010EE5C
:10508000101A674A80ED000A914203DC9FED650A21
:1050900080ED000A012586E0314663A0FEF77AFE26
:1050A000002005B0BDEC088BBDE8F08F58F8261045
:1050B0006FF0030000EB85000844B7EE001AD0ED56
:1050C000000A4D4581EE200A38EE008A33DA18EEE8
:1050D000100AFBF787FA41EC100BB0EE4A1AF0EE1B
:1050E0006A1AFEF729FFB0EE40BAF0EE60BA18EE89
:1050F000900AFBF777FA53EC1B2BFBF74DF9FBF704
:105100009DFA3E4900EE100A51F83B0000EE900A6D
:1051100058F82600F8EEE00A00EB850030EE800A31
:1051200080ED000AA9F1010085423BD138EE490A21
:10513000B0EEC08A36E039EE480AB0EEC00A10EE92
:10514000100AFBF74FFA41EC100BB0EE4A1AF0EEE2
:105150006A1AFEF7F1FEB0EE40BAF0EE60BA18EE51
:10516000900AFBF73FFA53EC1B2BFBF715F9FBF703
:1051700065FAD7ED010A00EE100A58F82600F8EE9D
:10518000E00A00EB850030EEC00A80ED000AD7EDA2
:10519000010AF8EEE00AB4EEE00AF1EE10FA01DBE3
:1051A0002C4602E06D1CA54280DBBAF1000F1FD037
:1051B00000204146021F04EBD47C11E051F8263058
:1051C000A4EB000803EB800502EB8808434495ED4F
:1051D000000AD3ED000A401CC5ED000A83ED000A69
:1051E000B0EB6C0FEADB51F82600FC60786103E05D
:1051F00058F82600BC603861012052E714DD012018
:1052000000000000000008400000000000001840FE
:10521000000000605555D53F000000000000004030
:10522000F4247441F42474416D6F746F722564200A
:10523000C4DAB4E6B2BBD7E321C7EBD0DEB8C4B260
:10524000CECAFD0D0A00000009490020094A8873F2
:10525000C870087148718871887008704870107043
:10526000054A107048728872C872C8710872704717
:1052700070C0012063C1012064C101202DE9F05FED
:105280007F494FF0000B7F4A7F4B804E804F58463E
:1052900081F800B0C0B2145C34541C5C3C54401C17
:1052A000C0B208702028F5D308788A4620287DD11E
:1052B000DFF8E081DFF8E0910024305D572826D147
:1052C0003519687818BBA878FF2820D1284698F8A7
:1052D000001001F0D9FC012819D1A889B8B1AA7928
:1052E000A98862F31F41EA7941EA0262C9F8002005
:1052F000AA7A298962F31F41684A1160684AEB7AE9
:105300001370684A1060E87808B967480160385D32
:10531000572827D13D19687820BBA878FF2821D1CC
:10532000284698F8001001F0AFFC01281AD1A8898E
:10533000C0B1AA79A98862F31F41EA7941EA026201
:10534000C9F80020AA7A298962F31F41574A1160DF
:10535000534AEB7A1370534A1060E878012801D160
:1053600053480160641C102CA7DB52480126022719
:105370000178514D514C012906D0DFF844910429A0
:1053800022D007294DD077E08046032000F066FB4D
:1053900098F8000004EB800050F8041C00296BD042
:1053A000006A002868D0022904D000E066E00129E4
:1053B00005D061E001285FD12E7042A05AE001289B
:1053C0005AD12F7045A055E08046012000F046FBE1
:1053D00098F8000004EB800151F8040C00284BD031
:1053E000096A002948D0022802D0012803D006E02B
:1053F0002E7040A001E02F7045A0FEF7CBFC98F87E
:10540000000004EB8000006A022802D0012804D0CA
:1054100032E089F8006045A02CE089F800704AA0CD
:1054200028E08046012000F019FB98F8000004EB0A
:10543000800151F8040CF8B1096AE9B1022802D0E0
:10544000012803D006E02E7046A001E02F704CA08A
:10545000FEF7A0FC98F8001004EB8100006A022817
:1054600002D0012804D007E089F800604BA001E0D9
:105470002F7051A0FEF78EFC8AF800B0BDE8F09FB7
:1054800061C1012064E001202CE10120C4DD012084
:10549000E4DD012041C1012044C1012048C10120B7
:1054A00058C101205CC1012050C101204CC1012024
:1054B00054C1012062C1012063C1012004DE01202A
:1054C00064C1012073656374696F6E31D7A5C8A18B
:1054D000D4DACDE2BBB70D0A000000007365637437
:1054E000696F6E31D7A5C8A1D4DAC4DABBB70D0A8B
:1054F0000000000073656374696F6E32207365721B
:10550000766F31D7A5C8A1D4DAC4DABBB70D0A00CB
:1055100073656374696F6E3220736572766F31D70D
:10552000A5C8A1D4DACDE2BBB70D0A0073656374D8
:10553000696F6E3220736572766F32D7A5C8A1D4B9
:10554000DAC4DABBB70D0A0073656374696F6E3233
:1055500020736572766F32D7A5C8A1D4DACDE2BBCD
:10556000B70D0A0073656374696F6E3320736572DB
:10557000766F31D7A5C8A1D4DAC4DABBB70D0A005B
:1055800073656374696F6E3320736572766F31D79C
:10559000A5C8A1D4DACDE2BBB70D0A007365637468
:1055A000696F6E3320736572766F32D7A5C8A1D448
:1055B000DAC4DABBB70D0A0073656374696F6E33C2
:1055C00020736572766F32D7A5C8A1D4DACDE2BB5D
:1055D000B70D0A002DE9F041344C00252DED028B6A
:1055E000207A10B1012804D057E06571A57101201F
:1055F00020726079A17908433BD12D4EB5602D4FC3
:105600009FED2D8B97ED040B53EC182B51EC100BE9
:10561000FAF7C2FEFAF7AEFF02464FF4967803237C
:10562000F6EE000AB6EE000A4146002001F044FA08
:105630006079401C6071F56097ED060B53EC182BF8
:1056400051EC100BFAF7A8FEFAF794FF0246042378
:10565000F6EE000AB6EE000A4146002001F02CFAF0
:10566000A079401CA071032001F0F8FA042001F099
:10567000F5FA1348007804280FD11248007804285E
:105680000BD1E078401CC0B2E0702179491CC9B24E
:105690002171022801D1022904D00220BDEC028B25
:1056A000BDE8F081022020720120F7E770C00120E0
:1056B000B4DD012008C10120000000000000A94065
:1056C00027C0012026C0012082B0CDE9000121F0D1
:1056D000004001909DED000B02B051EC100B7047A3
:1056E00013B54FF47A73012269460248FDF788FD2D
:1056F00000981CBD38E20120FBF76CFEFDF7F8FFB7
:10570000FDF736FEFDF7D8FDFDF7ACFEFDF7FEFE1A
:10571000FDF78EFEFDF776FFFDF790FFFDF7AAFF80
:10572000FDF7C4FFFDF7ECFD002000F053F8022068
:1057300000F050F8012000F04DF8012219491A48F4
:10574000FDF734FC012219491948FDF72FFC01220D
:1057500018491948FDF72AFC012218491848FDF795
:1057600025FC00211748FDF7AFF804211548FDF787
:10577000ABF89FED150B01F06DF900211448FCF713
:10578000AFFF04211248FCF7ABFF08211048FCF7DB
:10579000A7FF0C210E48FCF7A3FF00BF01F00EFB92
:1057A000FCE7000076C1012038E2012078C1012029
:1057B000F4E1012071C101207CE2012070C10120CF
:1057C000C0E201208CDF01200000000000C0554035
:1057D000D4DF012030B504460748084D002150F8B9
:1057E0002400420005EB8400406900F06FF80120BE
:1057F000291981F8200030BDF46E000800C0012096
:105800002DE9F041204E0446002530190F4690F84E
:10581000200010B93168204688474FF0FF3277B337
:105820001A4B53F82410B7FBF1F0B7FBF1FC01FB66
:105830001C7101B1401C15490C3951F82410491E46
:1058400020D406EB8406776937F811C0BCF1000F4D
:1058500005D00025854213D1002285B208E06D1CD9
:10586000F8E700BF776901EB020C521C27F81C50C7
:105870008242F7D353F824004843BDE8F08101E0A9
:10588000491EE1D51046F8E700C00120006F00086E
:1058900010B50C4B0C4C002253F82030114604EB91
:1058A000800005E0446934F8114004B1521C491CE1
:1058B0008B42F7D84FF47A704243B2FBF3F080B2D8
:1058C00010BD0000F46E000800C0012002E000BF1F
:1058D00000F8011B521EFBD270470000F0B40029F3
:1058E00023D0134B03EB80029468091B1C1894F817
:1058F000204084B10F4B53F820308B4215D90D4B0B
:105900000C3B53F82000B1FBF0F1506930F8113036
:105910000020044607E01968F0BC084755690E18D6
:10592000401C25F816409842F8DBF0BC7047000098
:1059300000C001200C6F000810B50446FFF760FF9F
:10594000411C05D0034901EB84018968084410BD5E
:10595000002010BD00C001202DE9F041374C00258A
:105960002DED048B207A18B96571A5710120207284
:105970006079A179084340D1207A01283DD1304E89
:10598000B560304F9FED309B97ED000B53EC192B1A
:1059900051EC100BFAF700FDFAF7ECFD9FED2C8AA5
:1059A00002464FF496780323F0EE480AB0EE480A18
:1059B0004146002001F080F86079401C6071F5607C
:1059C00097ED000B53EC192B51EC100BFAF7E4FC9C
:1059D000FAF7D0FD02460423F0EE480AB0EE480A7A
:1059E0004146002001F068F8A079401CA071032016
:1059F00001F034F9042001F031F916480078042848
:105A000012D11548007804280ED1207A01280BD134
:105A1000E078401CC1B2E1702079401CC0B2207116
:105A2000022901D1022804D00220BDEC048BBDE87C
:105A3000F081022020720120F7E7000070C00120F1
:105A4000B4DD012008C10120000000000000A940D1
:105A50009A99993E26C0012027C0012030B5144AEA
:105A6000491E022413680125124AC9B201280BD02D
:105A7000022808D0032806D102EB8100A02B456242
:105A800013D842F8214030BDA02B02D842F8214063
:105A900001E042F8215008480068A02802EB81008C
:105AA00001D8446230BD456230BD42F8215030BD5E
:105AB00050C1012004DE012054C101202DE9F0472E
:105AC000414C0127607B48B101283BD1A0783F4D74
:105AD000DFF8FC804FF6FF7930B124E0FFF7B4FB2C
