:020000040800F2
:1000000028090020A1010008292A0008F12600087B
:10001000252A0008AD0200088D3400080000000009
:10002000000000000000000000000000612B00083C
:10003000E9020008000000002D2B0008632B0008D7
:10004000BB010008BB010008BB010008BB010008A0
:10005000BB010008BB010008BB010008BB01000890
:10006000BB010008BB010008BB010008BB01000880
:10007000BB010008BB010008BB010008BB01000870
:10008000BB010008BB010008BB010008BB01000860
:10009000BB010008BB010008BB010008BB01000850
:1000A000BB010008352C0008BB010008BB0100089B
:1000B000452C0008BB010008BB010008BB0100087B
:1000C000BB010008BB010008BB010008BB01000820
:1000D000BB0100085D3400086D3400087D34000861
:1000E000BB010008BB010008BB010008BB01000800
:1000F000BB010008BB010008BB010008BB010008F0
:10010000BB010008BB010008BB010008BB010008DF
:10011000BB010008BB010008BB010008BB010008CF
:10012000BB010008BB010008BB010008BB010008BF
:10013000BB010008BB010008BB010008BB010008AF
:10014000B1020008BB010008BB010008BB010008A8
:10015000BB010008BB010008BB010008BB0100088F
:10016000BB010008BB010008BB010008BB0100087F
:10017000BB010008BB010008BB0100080000000033
:10018000BB010008BB010008DFF810D000F07CF8CC
:100190000048004789350008AFF300802809002097
:1001A0000648804706480047FEE7FEE7FEE7FEE711
:1001B000FEE7FEE7FEE7FEE7FEE7FEE7212C00088C
:1001C000890100082DE9F05F0546002092469B4614
:1001D00088460646814640241BE02846414647465D
:1001E000224600F041F853465A46C01A914110D3B6
:1001F00011461846224600F028F82D1A67EB010830
:100200004F4622460120002100F01FF817EB00099D
:100210004E41201EA4F10104DFDC484631462A4647
:100220004346BDE8F09FD2B201E000F8012B491E21
:10023000FBD270470022F6E710B513460A46044683
:100240001946FFF7F0FF204610BD202A04DB203AB4
:1002500000FA02F1002070479140C2F1200320FA19
:1002600003F3194390407047202A04DB203A21FA17
:1002700002F00021704721FA02F3D040C2F12002BF
:100280009140084319467047064C074D06E0E06868
:1002900040F0010394E8070098471034AC42F6D3CD
:1002A000FFF776FFB03A0008D03A000800BFFEE73B
:1002B00010B5024800F02CFA10BD000044010020E7
:1002C00010B5064803F08CF9B0EE081ADFED040A09
:1002D000B1EE040A034802F0A9FB10BD880100201A
:1002E000CDCCCC3D6C010020704772B600BFFEE75C
:1002F00010B5024692F82030012B01D0022B06D116
:1003000010684069084314686061002010BD506A9D
:1003100040F4802050620120F8E7F0B504460D4615
:100320001E4694F8207020688368A86800B900E031
:1003300000BF012F01D0022F7CD103F0806030B9C3
:1003400003F0006018B903F08050002873D0C3F3A5
:100350000161022905D9606A40F400006062012051
:10036000F0BD012088403060A86860B9B5F800C0D1
:10037000E86840EA4C5C206800F5C07000EB0110B2
:10038000C0F800C00FE0D5E901C040EACC00D5F8C4
:100390000CC040EA0C00D4F800C00CF5C07C0CEB9B
:1003A000011CCCF80000D5F810C0206800F5C07022
:1003B00000EB0110C0F804C0287D01280ED1206890
:1003C00000F5C07000EB0110406840F4807C2068AC
:1003D00000F5C07000EB0110C0F804C0D079000631
:1003E00092F806C040EA0C4092F805C040EA0C2C96
:1003F00010794CEA000C206800F5C07000EB011089
:10040000C0F80CC0D078000692F802C040EA0C4058
:1004100092F801C040EA0C2092F800C040EA0C00BB
:10042000D4F800C00CF5C07C0CEB011CCCF8080023
:10043000206801E016E00FE000F5C07000EB01104D
:10044000006840F0010C206800F5C07000EB01105E
:10045000C0F800C0002083E7606A40F400106062CA
:1004600001207DE7606A40F480206062012077E728
:10047000F0B504460A46216894F82050012D01D0B9
:10048000022D7ED1424901F50071086840F001005B
:100490000860086820F47C5008600868566A40EAE2
:1004A00006200860107D00F01F06012000FA06F308
:1004B000C8699843C861A1F50071D069C8B9D1F87D
:1004C0000C029843C1F80C02908880B2968940EAE9
:1004D000064601F51070576940F83760108880B201
:1004E000168940EA064601F51070576900EBC7000F
:1004F0004660D069012819D1D1F80C021843C1F81F
:100500000C02908880B2168840EA064601F5107009
:10051000576940F83760908980B2168940EA0646EC
:1005200001F51070576900EBC7004660906928B963
:10053000D1F804029843C1F8040204E0D1F804029F
:100540001843C1F80402106928B9D1F8140298437D
:10055000C1F8140204E0D1F814021843C1F81402DF
:10056000106A012804D1D1F81C021843C1F81C02FA
:10057000D1F8000220F00100C1F800020020F0BD17
:10058000FFE7606A40F4802060620120F7E7000026
:1005900000640040704770B5044694F82050012D67
:1005A00001D0022D7DD151B92068C06800F0030050
:1005B00080B9606A40F400106062012070BD20685C
:1005C000006900F0030028B9606A40F4001060621E
:1005D0000120F3E7206800F5D87000EB01100068F7
:1005E00000F004009060906840B9206800F5D87071
:1005F00000EB01100068400D106007E0206800F576
:10060000D87000EB01100068C0085060206800F549
:10061000D87000EB0110006800F00200D060206884
:1006200000F5D87000EB0110406800F00F00106179
:10063000206800F5D87000EB0110406800F47F409E
:10064000000A9061206800F5D87000EB0110406846
:10065000000C5061206800F5D87000EB0110806834
:100660001870206800F5D87000EB0110806800F465
:100670007F40000A5870206800F5D87000EB011028
:10068000806800F47F00000C9870206800F5D87036
:1006900000EB01108068000ED870206800F5D8705B
:1006A00000E02FE000EB0110C0681871206800F531
:1006B000D87000EB0110C06800F47F40000A587148
:1006C000206800F5D87000EB0110C06800F47F00CE
:1006D000000C9871206800F5D87000EB0110C0681C
:1006E000000ED87131B92068C06840F0200026683B
:1006F000F06005E02068006940F020002668306165
:1007000000205BE7606A40F480206062012055E7CA
:100710002DE9F05F04460025206846692068D0F87E
:100720000490206887682068D0F80CA02068D0F872
:1007300010B02068D0F8188006F00100002855D0CD
:1007400007F00100C0B101202168886007F00200B5
:1007500018B1204600F0B3FA0EE007F0040010B123
:1007600045F4006508E007F0080010B145F4805535
:1007700002E0204600F0A2FA07F48070C8B14FF4FE
:1007800080702168886007F4007018B1204600F07E
:1007900098FA0EE007F4806010B145F4005508E0C7
:1007A00007F4006010B145F4804502E0204600F0F7
:1007B00087FA07F48030C8B14FF480302168886030
:1007C00007F4003018B1204600F07DFA0EE007F47F
:1007D000802010B145F4004508E007F4002010B176
:1007E00045F4803502E0204600F06CFA06F008007F
:1007F00038B10AF0100020B145F4007510202168CE
:10080000C86006F0040040B10AF0080028B10820D2
:100810002168C860204600F0B9F906F0020038B13E
:100820002068C06800F0030010B1204600F0B0F965
:1008300006F0400038B10BF0100020B145F480659F
:1008400010202168086106F0200040B10BF008007C
:1008500028B1082021680861204600F0FDF906F063
:10086000100038B12068006900F0030010B1204684
:1008700000F0F3F906F4003040B109F0100028B19F
:10088000102021684860204600F0E8F906F4803026
:1008900040B109F0080028B10820216848602046CE
:1008A00000F012FA06F4004088B309F0040078B3AF
:1008B00006F4807020B108F0010008B145F0010590
:1008C00006F4007020B108F0020008B145F00205FE
:1008D00006F4806020B108F0040008B145F004057A
:1008E00006F40060A0B108F0700088B108F0700054
:1008F000402817D006DC10280BD020280CD0302838
:1009000019D10CE0502810D0602814D110E01DE05F
:1009100019E045F008050FE045F010050CE045F042
:10092000200509E045F0400506E045F0800503E0BC
:1009300045F4807500E000BF00BF2068806920F0AA
:100940007000216888610420216848602DB1606AC8
:10095000284360622046FFF71DFEBDE8F09F70B59A
:1009600004460CB9012070BD94F8200010B920464F
:1009700000F0B0F82068006840F0010021680860CD
:1009800000F024FB05460DE000F020FB401B0A2888
:1009900008D9606A40F400306062052084F82000C5
:1009A0000120E0E72068406800F001000028EBD05B
:1009B0002068006820F002002168086000F006FB53
:1009C00005460DE000F002FB401B0A2808D9606ACA
:1009D00040F400306062052084F820000120C2E766
:1009E0002068406800F002000028EBD1207E01283A
:1009F00006D12068006840F080002168086005E0AA
:100A00002068006820F0800021680860607E01286E
:100A100006D12068006840F040002168086005E0C9
:100A20002068006820F0400021680860A07E01284E
:100A300006D12068006840F020002168086005E0C9
:100A40002068006820F0200021680860E07E01280E
:100A500006D12068006820F010002168086005E0D9
:100A60002068006840F0100021680860207F01289D
:100A700006D12068006840F008002168086005E0A1
:100A80002068006820F0080021680860607F012865
:100A900006D12068006840F004002168086005E085
:100AA0002068006820F0040021680860D4E9020191
:100AB000084321690843616908436168491E084386
:100AC0002168C86100206062012084F820000020B5
:100AD00049E7000010B586B00446142101A8FFF7CD
:100AE000A9FB27492068884247D100BF0020009019
:100AF0002448006840F08060224908600846006889
:100B000000F08060009000BF00BF00BF0020009098
:100B10000846006840F0007008600846006800F071
:100B20000070009000BF00BF00BF0020009015487B
:100B30001038006840F00200124910390860084679
:100B4000006800F00200009000BF00BF4FF440506A
:100B500001900220029000200390032004900920BD
:100B6000059001A9084800F02FF900221146402005
:100B700000F0B6FA402000F0A3FA06B010BD000065
:100B80000068004040380240000402407047000006
:100B900010B58AB004462C4800682C4988424AD1D6
:100BA00001AB03AA00212848FFF7F5FC0398A0F247
:100BB000012030B1012805D0022804D0032838D103
:100BC00002E000BF00BF00BF0398401E204908702C
:100BD0002048097830F8310000B21E491C4A1278CA
:100BE00001EBC201C8809DF805009DF8041040EAA1
:100BF00001201849164A127821F832009DF80700A2
:100C00009DF8061040EA012001B21248104A1278FD
:100C100000EBC20041809DF809009DF8081040EAF1
:100C2000012001B20B480A4A127800EBC200818011
:100C300000E000BF00BF2068406940F0020021686A
:100C400048610AB010BD0000440100200068004067
:100C5000140000202401002070477047704770B5D1
:100C6000044694F82000012822D1022084F82000B4
:100C70002068006820F001002168086000F0A6F9F3
:100C800005460DE000F0A2F9401B0A2808D9606A69
:100C900040F400306062052084F82000012070BD1F
:100CA0002068406800F001000028EBD16062F6E7A0
:100CB000606A40F4002060620120F0E770477047EE
:100CC0007047704770477047704770B50446A56D10
:100CD00000F07CF9064694F83500022808D0802000
:100CE000606500BF002084F8340000BF012070BDA3
:100CF0002068006820F016002168086020684069BC
:100D000020F0800021684861206C08B9A06C28B1EF
:100D10002068006820F008002168086020680068EA
:100D200020F001002168086010E000F04FF9801BFE
:100D300005280BD920206065032084F8350000BF0A
:100D4000002084F8340000BF0320D0E7206800684A
:100D500000F001000028E8D194F85C103F208840A2
:100D6000A860012084F8350000BF002084F834001A
:100D700000BF00BFBBE7014691F83500022803D051
:100D80008020486501207047052081F835000868FB
:100D9000006820F001000A6810600020F3E70000FE
:100DA00070B5044600F012F906462546681C10B1DD
:100DB00004480078054400BF00F008F9801BA842F1
:100DC000FAD370BD40000020F8B502460B4600255E
:100DD000002400200021D6E0012606FA01F51E6855
:100DE00006EA0504AC4274D11E7906F00306012E12
:100DF00004D01E7906F00306022E13D190684F002E
:100E00000326BE40B0434F00DE68BE4030439060D2
:100E1000506801268E40B0431E79C6F300168E40FE
:100E2000304350601E7906F00306032E09D0D068C7
:100E30004F000326BE40B0434F009E68BE40304383
:100E4000D0601E7906F00306022E13D1CF0802F1FE
:100E5000200656F827004E07F70E0F26BE40B04377
:100E60004F07FF0E1E69BE403043CF0802F1200637
:100E700046F8270010684F000326BE40B0431E7995
:100E800006F003064F00BE40304310605E6806F473
:100E90004036002E76D000BF002600963C4E3668C5
:100EA00046F480463A4F3E603E46366806F4804639
:100EB000009600BF00BF374E8F0856F827008E07F8
:100EC000370F0F26BE40B043334EB24202D1002648
:100ED00024E057E0314EB24201D101261EE0304EEF
:100EE000B24201D1022619E02E4EB24201D10326B0
:100EF00014E02D4EB24201D104260FE02B4EB24237
:100F000001D105260AE02A4EB24201D1062605E0AB
:100F1000284EB24201D1072600E008268F073F0F76
:100F2000BE4030431B4E8F0846F82700224E3068E3
:100F3000A0435E6806F4801606B120431E4E306062
:100F4000361D3068A0435E6806F4001606B12043E3
:100F5000194E361D3060184E361F3068A0435E684B
:100F600006F4003606B12043134E361F3060361F9C
:100F70003068A0435E6806F4803606B120430E4E0A
:100F8000083E3060491C1029FFF426AFF8BD000070
:100F9000443802400838014000000240000402408A
:100FA00000080240000C0240001002400014024001
:100FB00000180240001C0240083C01400246136930
:100FC0000B400BB1012000E0002070470148006891
:100FD0007047000038000020034800680349097882
:100FE0000844014908607047380000204000002094
:100FF00010B50D48006840F400700B4908600846C1
:10100000006840F4806008600846006840F4807022
:101010000860032000F0A2F80F2000F007F800F0AD
:101020002BF8002010BD0000003C024070B50446C3
:101030000E4800784FF47A71B1FBF0F00C49096862
:10104000B1FBF0F5284600F02BFC08B1012070BD83
:10105000102C07D200222146501E00F041F805480E
:10106000046001E00120F2E70020F0E740000020EA
:10107000440000203C00002008B500BF0020009084
:101080000E48006840F480400C490860084600683B
:1010900000F48040009000BF00BF00BF002000901F
:1010A000081F006840F08050091F0860084600686B
:1010B00000F08050009000BF00BF08BD44380240DF
:1010C00001460846002809DB00F01F0301229A4070
:1010D00043099B0003F1E023C3F8002100BF7047E0
:1010E0002DE9F05F80460D461646002702F0D8F93C
:1010F000074639462A46334601F00700C0F1070A81
:10110000BAF1040F02D94FF0040A01E0C0F1070A56
:10111000D14600F1040ABAF1070F02D24FF0000ADB
:1011200001E0A0F1030AD4464FF0010A0AFA09FAD5
:10113000AAF1010A0AEA020A0AFA0CFA4FF0010BB4
:101140000BFA0CFBABF1010B0BEA030B4AEA0B04A5
:101150002146404602F0ACF9BDE8F09F00BF00F028
:101160000702064B19684FF6FF031940044B0B4367
:1011700043EA0221014B196000BF70470CED00E00B
:101180000000FA0570B504460D460CB9012070BD8B
:101190005848006800F00700A84209D255490D7070
:1011A0000846006800F00700A84201D00120EEE7E1
:1011B000207800F0020002281DD1207800F0040001
:1011C000042805D14C48006840F4E0504A490860C2
:1011D000207800F00800082805D14748006840F44E
:1011E0006040454908604448006820F0F000A1686C
:1011F000084341490860207800F00100A8B3606806
:10120000012807D13C4808380068C0F34040B8B90D
:101210000120BCE76068022802D06068032807D17B
:10122000354808380068C0F3406048B90120AEE78F
:10123000314808380068C0F3400008B90120A6E72B
:101240002D48006820F00300616808432A490860BF
:10125000FFF7BCFE064609E0FFF7B8FE801B41F22F
:101260008831884202D9032091E707E022480068CC
:1012700000F00C006168B0EB810FEDD11D480068F3
:1012800000F00700A84209D91A490D700846006805
:1012900000F00700A84201D0012078E7207800F094
:1012A0000400042807D11448006820F4E050E168E5
:1012B000084311490860207800F00800082808D188
:1012C0000D48006820F46040216940EAC1000A49E5
:1012D000086000F03FF808490968C1F30311074AA4
:1012E000515CC8400649086006480068FFF79EFE4A
:1012F00000204CE7003C024008380240983A0008C1
:10130000440000203C0000200148006870470000B5
:101310004400002000B5FFF7F7FF04490968C1F356
:101320008221034A515CC84000BD000008380240D9
:10133000A83A000800B5FFF7E7FF04490968C1F3C0
:101340004231034A515CC84000BD000008380240E9
:10135000A83A00082DE9F047002400250026A14600
:101360002548006800F00C0020B1042805D00828AA
:101370003AD105E0DFF8849039E0DFF8849036E078
:101380001D48001F006800F03F041B48001F006854
:1013900000F4800078B11A481749091F0968C1F3A1
:1013A0008811A0FB01700146224600233846FEF753
:1013B00009FF05460EE011480F49091F0968C1F3EE
:1013C0008811A0FB01700146224600233846FEF733
:1013D000F9FE05460848001F0068C0F30140401CA4
:1013E0004600B5FBF6F902E0DFF8109000BF00BF41
:1013F0004846BDE8F0870000083802400024F400A9
:1014000000127A00F8B504460CB90120F8BD207826
:1014100000F00100002874D0F948006800F00C00CA
:1014200004280DD0F648006800F00C00082813D1FD
:10143000F348001F006800F48000B0F5800F0BD166
:10144000EF4808380068C0F34040002859D0606871
:10145000002856D10120D9E700BF6068B0F5803F71
:1014600008D1E7480838006840F48030E44908397A
:1014700008601EE06068B0F5A02F0DD1E048083884
:10148000006840F48020DE4908390860084600689A
:1014900040F4803008600CE0D9480838006820F437
:1014A0008030D749083908600846006820F4802059
:1014B000086000BF606890B1FFF788FD054606E050
:1014C000FFF784FD401B642801D903209EE7CC4828
:1014D00008380068C0F340400028F1D011E0FFF761
:1014E00075FD054606E0FFF771FD401B642801D934
:1014F00003208BE7C24808380068C0F3404000284A
:10150000F1D1207800F0020002285FD1BC480068C9
:1015100000F00C0058B1BA48006800F00C00082830
:101520001CD1B748001F006800F48000B0B9B4486F
:1015300008380068C0F3400020B1E068012801D0FD
:10154000012063E7AE480838006820F0F800216900
:1015500040EAC100AA490839086037E0E06800B3F2
:101560000120A8490860FFF731FD054606E0FFF7B6
:101570002DFD401B022801D9032047E7A048083869
:101580000068C0F340000028F1D09D48083800688A
:1015900020F0F800216940EAC10099490839086043
:1015A00014E0002097490860FFF710FD054606E0AB
:1015B000FFF70CFD401B022801D9032026E79048C5
:1015C00008380068C0F340000028F1D1207800F00E
:1015D000080008282CD16069A8B101208A49086058
:1015E000FFF7F4FC054606E0FFF7F0FC401B02287D
:1015F00001D903200AE782486C300068C0F340003C
:101600000028F1D014E000207F490860FFF7DEFCDD
:10161000054606E0FFF7DAFC401B022801D903204B
:10162000F4E677486C300068C0F340000028F1D140
:10163000207800F00400042870D10027704838306A
:10164000006800F0805090B900BF002000906C4806
:101650003830006840F080506949383108600846E9
:10166000006800F08050009000BF00BF012767486D
:10167000006800F48070B0B96448006840F480707D
:1016800062490860FFF7A2FC054606E0FFF79EFCF2
:10169000401B022801D90320B8E65C48006800F42A
:1016A00080700028F2D000BFA068012808D15448FB
:1016B0006830006840F001005149683108601DE061
:1016C000A06805280DD14E486830006840F004003D
:1016D0004B49683108600846006840F00100086026
:1016E0000CE047486830006820F001004449683148
:1016F00008600846006820F00400086000BFA06889
:10170000A8B1FFF763FC054609E0FFF75FFC401B4B
:1017100041F28831884202D9032077E626E0384832
:1017200068300068C0F340000028EED013E0FFF7F7
:101730004DFC054608E0FFF749FC401B41F28831AB
:10174000884201D9032061E62D4868300068C0F363
:1017500040000028EFD1012F07D129483830006818
:1017600020F0805026493831086000BFA069002869
:1017700045D02348006800F00C0008285DD0A0691F
:10178000022845D100201F490866FFF71FFC0546C7
:1017900006E0FFF71BFC401B022801D9032035E6B9
:1017A000174808380068C0F340600028F1D1D4E938
:1017B00007010843616A40EA81110122A06AC2EB75
:1017C000500041EA00412C20005D41EA00600C49D4
:1017D000091F086001200B490866FFF7F7FB054663
:1017E00006E0FFF7F3FB401B022801D903200DE6BA
:1017F000034808380068C0F340600028F1D049E091
:101800000838024000004742800E47420070004006
:10181000002021490866FFF7D9FB054606E0FFF7DF
:10182000D5FB401B022801D90320EFE51B480068C7
:10183000C0F340600028F2D12CE0A069012800D15B
:10184000E4E51648001D0668A069012820D006F4CA
:101850008001E06981421BD106F03F01206A81428C
:1018600016D147F6C0703040616AB0EB811F0FD1CE
:1018700006F440310122A06AC2EB5000B1EB004FE8
:1018800006D106F070612C20005DB1EB006F01D035
:101890000120BBE50020B9E50000474200380240C6
:1018A00070B504462546681EB0F1807F01D3012043
:1018B0000FE0681E4FF0E02148610F214FF0FF302C
:1018C00001F0F6FD00204FF0E0218861072008615B
:1018D000002070BD7047704730B502460B4600BF10
:1018E00092F83C00012801D1022030BD012082F88D
:1018F0003C0000BF022082F83D0010684468106878
:10190000816824F070041868044310684460184D1E
:101910001068A8421BD01068B0F1804F17D0154D49
:101920001068A84213D0144D1068A8420FD0134D70
:101930001068A8420BD0124D1068A84207D0114D74
:101940001068A84203D0104D1068A84205D121F0BC
:1019500080015868014310688160012082F83D00D1
:1019600000BF002082F83C0000BF00BFBDE70000C0
:10197000000001400004004000080040000C00404E
:1019800000040140004001400018004010B504462A
:101990000CB9012010BD94F83D0028B9002084F84E
:1019A0003C00204600F026F8022084F83D00211D6E
:1019B000206801F04FF9012084F8460000BF84F848
:1019C0003E0001213F200155402001554120015595
:1019D00000BF00BF012084F842004320015544208D
:1019E00001554520015500BF012084F83D0000202D
:1019F000D0E7000038B504461D492068884218D158
:101A000000BF002000901B48006840F00100194909
:101A100008600846006800F00100009000BF00BFA9
:101A2000002211461920FFF75BFB1920FFF748FB46
:101A30001DE02068B0F1804F19D100BF0020009058
:101A40000C48001F006840F001000A49091F0860A7
:101A50000846006800F00100009000BF00BF0022AF
:101A600011461C20FFF73CFB1C20FFF729FB38BD6B
:101A70000000014044380240014691F83D00012831
:101A800001D001207047022081F83D000868C0683D
:101A900040F001000B68D8601A4B086898421BD0D0
:101AA0000868B0F1804F17D0174B0868984213D0E0
:101AB000164B086898420FD0154B086898420BD017
:101AC000144B0868984207D0134B0868984203D01B
:101AD000124B086898420CD10868806800F0070231
:101AE000062A0CD00868006840F001000B681860F6
:101AF00005E00868006840F001000B6818600020ED
:101B0000C0E7000000000140000400400008004061
:101B1000000C00400004014000400140001800405B
:101B20002DE9F04104460D46002700BF94F83C0023
:101B3000012802D10220BDE8F081012084F83C0098
:101B400000BF022084F83D002068866826F07706F2
:101B500026F47F46206886602868502833D00CDC45
:101B6000202850D004DC00284BD0102851D149E067
:101B7000302849D040284CD139E060282DD0702839
:101B800007D0B0F5805F03D0B0F5005F41D10DE024
:101B900041E0D5E902136A68206801F0C7F82068BF
:101BA000866846F077062068866034E0D5E902133F
:101BB0006A68206801F0BAF82068806840F48040C4
:101BC0002168886027E0EA686968206801F09EF96A
:101BD0005021206801F0B5F81DE0EA6869682068C6
:101BE00001F0A7F96021206801F0ABF813E0EA6882
:101BF0006968206801F08AF94021206801F0A1F8A5
:101C000009E000BF00BF00BF2968206801F099F813
:101C100001E0012700BF00BF012084F83D0000BFA4
:101C2000002084F83C0000BF384684E7704710B5B8
:101C3000044620680069C0F34000D8B12068C0683D
:101C4000C0F34000B0B16FF00200216808610120CC
:101C500020772068806900F0030018B12046FFF764
:101C6000E5FF05E0204600F0DBF8204600F08FF9A4
:101C70000020207720680069C0F38000D8B1206878
:101C8000C068C0F38000B0B16FF004002168086143
:101C9000022020772068806900F4407018B1204647
:101CA000FFF7C4FF05E0204600F0BAF8204600F038
:101CB0006EF90020207720680069C0F3C000D8B119
:101CC0002068C068C0F3C000B0B16FF008002168A0
:101CD0000861042020772068C06900F0030018B173
:101CE0002046FFF7A3FF05E0204600F099F82046C4
:101CF00000F04DF90020207720680069C0F3001043
:101D0000D8B12068C068C0F30010B0B16FF0100007
:101D100021680861082020772068C06900F44070BD
:101D200018B12046FFF782FF05E0204600F078F862
:101D3000204600F02CF9002020772068006900F090
:101D4000010058B12068C06800F0010030B16FF0A8
:101D5000010021680861204600F01AF92068006936
:101D6000C0F3C01058B12068C068C0F3C01030B1D3
:101D70006FF08000216808612046FFF7ABFD206806
:101D80000069C0F3801058B12068C068C0F38010AB
:101D900030B16FF0400021680861204600F07AF908
:101DA00020680069C0F3401058B12068C068C0F3D3
:101DB000401030B16FF02000216808612046FFF725
:101DC0008AFD10BD10B586B00446142101A8FEF7A7
:101DD00031FA2068B0F1804F1CD100BF0020009084
:101DE0000D48006840F001000B4908600846006893
:101DF00000F00100009000BF00BF01200190022010
:101E000002900020039004900120059001A903484E
:101E1000FEF7DAFF06B010BD303802400000024085
:101E200070472DE9F04104460D461646002700BFD5
:101E300094F83C00012802D10220BDE8F081012085
:101E400084F83C0000BF36B1042E1BD0082E31D0E0
:101E50000C2E5ED145E02946206800F07BFF20680B
:101E6000806940F00800216888612068806920F05E
:101E70000400216888612068806929690843216815
:101E8000886148E02946206800F09CFF206880694E
:101E900040F40060216888612068806920F48060D7
:101EA0002168886120688069296940EA01202168E9
:101EB000886130E02946206800F0C2FF2068C069D0
:101EC00040F008002168C8612068C06920F0040063
:101ED0002168C8612068C069296908432168C86110
:101EE00019E02946206800F0E7FF2068C06940F447
:101EF00000602168C8612068C06920F480602168A2
:101F0000C8612068C069296940EA01202168C86168
:101F100001E0012700BF00BF00BF002084F83C00A3
:101F200000BF384689E710B504460CB9012010BD42
:101F300094F83D0028B9002084F83C00204600F0C9
:101F400025F8022084F83D00211D206800F082FE63
:101F5000012084F8460000BF84F83E0001213F20A4
:101F60000155402001554120015500BF00BF01200F
:101F700084F8420043200155442001554520015575
:101F800000BF012084F83D000020D0E77047704773
:101F900070B505463B48854273D101F03BFB0024F8
:101FA00000BF60E0204601F0E5FA374901EB04117B
:101FB0000860354800EB04100068B0F9020000EE3C
:101FC000100AB8EEC00ADFED310A20EE200A2E48D2
:101FD00000EB041080ED010A0CB1012C0ED12C484D
:101FE00090ED000AF3EE000A30EE200AB1EE400A4E
:101FF000254800EB041080ED020A0BE0244890ED28
:10200000000AF3EE000A30EE200A1F4800EB04102D
:1020100080ED020A1C4901EB041191ED021AF0EE69
:10202000410A194901EB041191ED011AB0EE410A80
:10203000C4EBC4021449403101EB820000F010FDF2
:10204000C4EBC4011048403000EB810090ED060A5B
:10205000BDEEC00A10EE100A00B20B4901EB0411EC
:102060008881601CC4B2042C9CDB074EB6F93C305E
:10207000B6F92C20B6F91C10B6F90C0001F0DEFC04
:1020800000BF70BD3802002088010020F1A23E3B55
:102090001C00002070477047704700002DE9F84F82
:1020A0000446206805682068C668206847694FF0C4
:1020B0000009CA4605F00F09B9F1000F0AD105F071
:1020C000200038B106F0200020B1204600F095FF36
:1020D000BDE8F88FB9F1000F7CD007F0010018B906
:1020E00006F49070002875D005F0010030B106F4B8
:1020F000807018B1206C40F00100206405F00400ED
:1021000030B107F0010018B1206C40F002002064EB
:1021100005F0020030B107F0010018B1206C40F06A
:102120000400206405F0080048B106F0200010B952
:1021300007F0010018B1206C40F008002064206C0A
:10214000002846D005F0200028B106F0200010B18C
:10215000204600F052FF20684069C0F3801A206CCE
:1021600000F0080010B9BAF1000F2DD0204600F0A1
:10217000FEFE2068406900F04000402820D100BFEA
:1021800000BF2168143151E8001F21F04000216890
:10219000143141E80002002AF3D100BFA06B50B116
:1021A0007548A16B0865A06BFEF7E5FD88B1A06BD3
:1021B000016D88470DE02046FFF76EFF09E009E05A
:1021C0002046FFF769FF04E02046FFF765FF002087
:1021D00020647DE7206B012876D105F010000028EF
:1021E00072D006F010000028FAD000BF0020009046
:1021F00020680068009020684068009000BF00BF21
:102200002068406900F0400040285ED1A06B006863
:1022100040681FFA80F8B8F1000F54D0A08D4045F7
:1022200051DDA4F82E80A06BC069B0F5807F43D04B
:1022300000BF00BF21680C3151E8001F21F48070FD
:1022400021680C3141E80002002AF3D100BF00BF31
:1022500000BF2168143151E8001F21F001002168FE
:10226000143141E80002002AF3D100BF00BF00BFD3
:102270002168143151E8001F21F040002168143119
:1022800041E80002002AF3D100BF202084F83E007C
:102290000020206300BF00BF21680C3151E8001FFF
:1022A00021F0100021680C3141E80002002AF3D12E
:1022B00000BFA06BFEF709FDA08DE28D801A81B2F0
:1022C0002046FFF7E8FE03E740E0A08DE18D401ACD
:1022D0001FFA80F8E08DC0B3B8F1000F35D000BF11
:1022E00000BF21680C3151E8001F21F49070216873
:1022F0000C3141E80002002AF3D100BF00BF00BF4B
:102300002168143151E8001F21F0010021681431C7
:1023100041E80002002AF3D100BF202084F83E00EB
:102320000020206300BF00BF21680C3151E8001F6E
:1023300021F0100021680C3141E80002002AF3D19D
:1023400000BF41462046FFF7A6FEC1E605F080002B
:1023500030B106F0800018B1204601F006F8B7E66B
:1023600005F0400030B106F0400018B1204600F002
:1023700034FEADE600BFABE65B2F000810B50446A7
:102380000CB9012010BDA06900B100E000BF94F8B5
:102390003D0028B9002084F83C00204600F028F8D1
:1023A000242084F83D002068C06820F40050216893
:1023B000C860204600F09EFE2068006920F490402E
:1023C000216808612068406920F02A00216848617E
:1023D0002068C06840F400502168C8600020206474
:1023E000202084F83D0084F83E000020CAE7000069
:1023F00010B586B00446142101A8FDF71BFF5F4904
:102400002068884239D100BF002000905C480068F5
:1024100040F010005A4908600846006800F01000BB
:10242000009000BF00BF00BF002000905448143847
:10243000006840F0010052491439086008460068FD
:1024400000F00100009000BF00BF4FF4C060019099
:1024500002200290002003900320049007200590A2
:1024600001A94848FEF7B0FC002211462520FEF7DE
:1024700037FE2520FEF724FE7DE043492068884290
:102480003AD100BF002000903D48001F006840F492
:1024900000303B49091F08600846006800F400301E
:1024A000009000BF00BF00BF0020009034481438E7
:1024B000006840F00100324914390860084600689D
:1024C00000F00100009000BF00BF0C20019002202E
:1024D000029000200390032004900720059001A99A
:1024E0002848FEF771FC002211462620FEF7F8FD71
:1024F0002620FEF7E5FD3EE02449206888423AD1D7
:1025000000BF002000901E48001F006840F480209B
:102510001B49091F08600846006800F480200090ED
:1025200000BF00BF00BF00200090154814380068AD
:1025300040F002001249143908600846006800F0B3
:102540000200009000BF00BF4FF4406001900220E5
:10255000029000200390032004900720059001A919
:102560000B48FEF731FC002211462720FEF7B8FD8C
:102570002720FEF7A5FD06B010BD000000100140A9
:10258000443802400000024000440040004800403F
:102590000004024070B504460D46164694F83E000D
:1025A000202816D105B10EB9012070BD00BF94F8E6
:1025B0003C00012801D10220F7E7012084F83C000B
:1025C00000BF0020206332462946204600F0A8FEC6
:1025D000EBE70220E9E7000010B504460A4920684D
:1025E00088420FD1094800780949087008460078E8
:1025F000012802D10020074908700122034906483A
:10260000FFF7C8FF10BD0000004400402E0000206E
:102610002F000020180000209C0400202DE9F84F16
:1026200004460E46174699464FF0000A94F83D00BE
:1026300020285AD106B117B90120BDE8F88F00BF94
:1026400094F83C00012801D10220F6E7012084F82B
:102650003C0000BF00202064212084F83D00FEF7EC
:10266000B5FC8246A784E784A068B0F5805F04D1FA
:10267000206910B90025B04602E035464FF0000849
:1026800000BF002084F83C0000BF1BE0534600223E
:1026900080212046CDF8009000F097FE08B103207D
:1026A000CBE745B9B8F80000C0F3080021684860DE
:1026B00008F1020803E02878216848606D1CE08C6E
:1026C000401EE084E08C0028E0D1534600224021E7
:1026D0002046CDF8009000F078FE08B10320ACE76A
:1026E000202084F83D000020A7E70220A5E77047DE
:1026F00000BFFEE710B50F480F490860032048608F
:1027000000210D488160C1604FF4002101614FF448
:10271000401141610021017601214176002181763D
:10272000C17601774177FEF71AF908B1FDF7DDFDB3
:1027300010BD0000006800404401002000B587B0D3
:10274000142102A8FDF776FD00BF00200190434848
:10275000006840F00400414908600846006800F045
:102760000400019000BF00BF00BF00200190084698
:10277000006840F0200008600846006800F0200073
:10278000019000BF00BF00BF002001900846006814
:1027900040F0800008600846006800F0800001906A
:1027A00000BF00BF00BF002001900846006840F055
:1027B000010008600846006800F00100019000BFB9
:1027C00000BF00BF002001900846006840F00200F2
:1027D00008600846006800F00200019000BF00BFDA
:1027E00000BF002001900846006840F00800086023
:1027F0000846006800F00800019000BF00BF00BF5D
:10280000002001900846006840F04000086008463B
:10281000006800F04000019000BF00BF4FF4FF705F
:10282000029000200390049002A90D48FEF7CCFA14
:10283000FE20029000200390049002A90948FEF7B0
:10284000C3FA4FF40070029000200390049002A994
:102850000548FEF7B9FA07B000BD00003038024065
:1028600000140240000C02400018024000B587B07E
:102870000020039004900590069001900290154866
:1028800015490860A720486000211348816042F282
:102890000F71C16000210161416180218161FFF7F9
:1028A00075F808B1FDF721FD4FF48050039003A99E
:1028B0000948FFF735F908B1FDF717FD0020019031
:1028C000029001A90448FFF707F808B1FDF70DFDD4
:1028D00007B000BD000001403802002000B58DB0F7
:1028E000002009900A900B900C90079008901C21F2
:1028F0006846FDF79FFC4FF080401F490860532059
:10290000486000211C48816040F2E731C16000212D
:1029100001618161FFF73AF808B1FDF7E6FC4FF479
:102920008050099009A91448FFF7FAF808B1FDF79B
:10293000DCFC1148FFF7F7FA08B1FDF7D6FC0020E0
:102940000790089007A90C48FEF7C6FF08B1FDF7ED
:10295000CCFC6020009000200190029004900022A6
:1029600069460548FFF75DFA08B1FDF7BEFC02486D
:10297000FFF728FA0DB000BD8002002010B50B480B
:102980000B4908604FF4E13048600021084881603D
:10299000C16001610C21416100218161C161FFF7CA
:1029A000EDFC08B1FDF7A1FC10BD000000100140D6
:1029B0005804002010B50B480B4908604FF4E13073
:1029C0004860002108488160C16001610C214161BB
:1029D00000218161C161FFF7D1FC08B1FDF785FCE1
:1029E00010BD0000004400409C04002010B50B48BE
:1029F0000B4908604FF4E1304860002108488160CD
:102A0000C16001610C21416100218161C161FFF759
:102A1000B5FC08B1FDF769FC10BD0000004800409E
:102A2000E004002000BFFEE700BFFEE780ED030AE0
:102A3000C0ED040A80ED051ADFED081AC0ED061A94
:102A4000DFED061AC0ED001ADFED041AC0ED011A21
:102A5000DFED021AC0ED021A70470000000000000E
:102A600030EEC01A80ED001A90ED021AD0ED001A77
:102A700031EE211A80ED021A90ED021ADFED271ACD
:102A8000B4EEE11AF1EE10FA03DB9FED241A80EDAB
:102A9000021A90ED021ADFED221AB4EEE11AF1EEFD
:102AA00010FA03D89FED1E1A80ED021A90ED031A5A
:102AB000D0ED001A21EE211AD0ED041A90ED022A71
:102AC00001EE821AD0ED001A90ED012A71EEC21AC1
:102AD00090ED052A02EE211A80ED061A90ED061AF5
:102AE000DFED101AB4EEE11AF1EE10FA03DB9FED00
:102AF0000D1A80ED061A90ED061ADFED0B1AB4EEF2
:102B0000E11AF1EE10FA03D89FED071A80ED061ACC
:102B100090ED001A80ED011A7047000000803B45DF
:102B200000803BC500409C4500409CC570470000AC
:102B300010B50848007801280BD144F62060FEF754
:102B40002FF90020034908709FED030A034880ED28
:102B5000000A10BD18000020000000001C0000202A
:102B6000704710B5FEF738FA10BD000000B593B0FD
:102B7000302107A8FDF75EFB142102A8FDF75AFBE0
:102B800000BF002001902448006840F08050224996
:102B900008600846006800F08050019000BF00BF48
:102BA00000BF002001901D48006840F480401B4990
:102BB00008600846006800F48040019000BF00BF34
:102BC000012007900004089002200D9041050E910D
:102BD00004210F91A8211091022111910421129139
:102BE00007A8FEF70FFC08B1FDF77FFB0F2002904E
:102BF00002200390002004904FF4A05005904FF461
:102C000080500690052102A8FEF7BCFA08B1FDF736
:102C10006CFB13B000BD0000403802400070004063
:102C20000348006840F470000149086070470000E4
:102C300088ED00E010B50248FEF7F9FF10BD000076
:102C40003802002010B50248FEF7F1FF10BD000069
:102C50008002002010B50268294B98420ED0B0F1D6
:102C6000804F0BD0274B984208D0274B984205D075
:102C7000264B984202D0264B984203D122F0700294
:102C80004B681A431E4B984220D0B0F1804F1DD0A4
:102C90001C4B98421AD01C4B984217D01B4B9842A1
:102CA00014D01B4B984211D01A4B98420ED01A4B9D
:102CB00098420BD0194B984208D0194B984205D036
:102CC000184B984202D0184B984203D122F440721C
:102CD000CB681A4322F080034C6943EA0402026085
:102CE0008B68C3620B688362054B984202D0084B25
:102CF000984201D10B6903630123436110BD0000B9
:102D0000000001400004004000080040000C0040AA
:102D100000040140004001400044014000480140DF
:102D200000180040001C00400020004030B50C4658
:102D3000816821F47F4142EA0325254329438160CC
:102D400030BD0A46816821F0700142F00703194343
:102D50008160704730B5056A25F001050562026A99
:102D60004368846924F0700424F003040D682C4344
:102D700022F002028D682A43104DA84200D103E0E0
:102D80000F4DA84206D100BF22F00802CD682A43A9
:102D900022F00402094DA84202D0094DA84207D1F1
:102DA00023F4807323F400734D692B438D692B4307
:102DB000436084614D684563026230BD000001409C
:102DC0000004014030B5056A25F010050562026A6D
:102DD0004368846924F4E04424F440740D6844EAB0
:102DE000052422F020028D6842EA0512124DA84205
:102DF00000D103E0114DA84207D100BF22F08002AC
:102E0000CD6842EA051222F040020B4DA84202D0E2
:102E10000A4DA84209D123F4806323F400634D696D
:102E200043EA85038D6943EA8503436084614D6805
:102E30008563026230BD00000000014000040140D3
:102E400030B5056A25F480750562026A4368C46975
:102E500024F0700424F003040D682C4322F4007263
:102E60008D6842EA0522124DA84200D103E0114DBF
:102E7000A84207D100BF22F40062CD6842EA0522D1
:102E800022F480620A4DA84202D00A4DA84209D11C
:102E900023F4805323F400534D6943EA05138D69ED
:102EA00043EA05134360C4614D68C563026230BDE7
:102EB000000001400004014030B5056A25F480554A
:102EC0000562036A4468C26922F4E04222F4407257
:102ED0000D6842EA052223F400538D6843EA053366
:102EE000084DA84202D0084DA84204D124F48044E1
:102EF0004D6944EA85144460C2614D68056403620B
:102F000030BD0000000001400004014030B50B4618
:102F10001446026A056A25F001050562816921F0FF
:102F2000F00141EA041122F00A021A4381610262AF
:102F300030BD30B50B461446056A25F01005056214
:102F40008169026A21F4704141EA043122F0A00251
:102F500042EA03128161026230BD70B50546AC6B76
:102F60000020E085E0842046FFF796F870BD00BFA2
:102F700000BF02680C3252E8002F22F49071026800
:102F80000C3242E80013002BF3D100BF00BF00BF9A
:102F90000268143252E8002F22F001010268143254
:102FA00042E80013002BF3D100BF016B01290ED1C1
:102FB00000BF00BF02680C3252E8002F22F010015F
:102FC00002680C3242E80013002BF3D100BF20212D
:102FD00080F83E1000210163704710B50446206858
:102FE000C06820F040002168C860202084F83D00BF
:102FF0002046FFF77CFB002010BDF8B5044694F88E
:103000003E00222873D1A068B0F5805F0CD1206902
:1030100050B90025A66A20684068C0F308003080D7
:10302000A06A801CA06215E0A56A0026A068B0F521
:10303000805F03D0A06828B9206918B9206840686B
:10304000287004E02068406800F07F002870A06AC3
:10305000401CA062E08D401E80B2E085002844D173
:103060002068C06820F020002168C8602068C0681F
:1030700020F480702168C8602068406920F0010059
:1030800021684861202084F83E00206B012826D169
:103090000020206300BF00BF21680C3151E8001FF1
:1030A00021F0100021680C3141E80002002AF3D120
:1030B00000BF2068006800F0100010280AD100BF8F
:1030C0000020009020680068009020684068009010
:1030D00000BF00BFA18D2046FEF7DDFF02E02046C5
:1030E000FFF77AFA0020F8BD01E00020FBE702209C
:1030F000F9E700002DE9F84F04462068006920F444
:103100004050E1680843216808612169A0680843CC
:1031100061690843E169084300902068C06849F28A
:103120000C618843009908432168C86020684069A1
:1031300020F44070A16908432168486176492068FD
:10314000884203D075492068884203D1FEF7F2F81F
:10315000814602E0FEF7DEF88146E069B0F5004FF7
:103160006CD102206168A0FB015003461920A9FB25
:10317000007001462A463846FDF724F86421B0FB6A
:10318000F1F04FEA001A02206168A0FB01510B46E2
:103190001920A9FB00712A463846FDF713F883462B
:1031A00002206168A0FB015003461920A9FB0071B1
:1031B0002A463846FDF706F86421B0FBF1F000EB33
:1031C000C00101EB0010ABEB8000322101EBC0002D
:1031D0006421B0FBF1F000F0F8000AEB400A022095
:1031E0006168A0FB015003461920A9FB007001464D
:1031F0002A463846FCF7E6FF834602206168A0FBBA
:10320000015003461920A9FB00712A463846FCF7F5
:10321000D9FF6421B0FBF1F000EBC00101EB00101D
:10322000ABEB8000322101EBC0006421B0FBF1F078
:1032300000F007005044216888606AE0042061685B
:10324000A0FB015003461920A9FB007001462A4645
:103250003846FCF7B7FF824604206168A0FB0150A6
:1032600003461920A9FB007001462A463846FCF7A0
:10327000A9FF6421B0FBF1F000EBC00101EB0010ED
:10328000AAEB8000322101EB00106421B0FBF1F0C9
:1032900000F0F00A04206168A0FB017003461920C9
:1032A000A9FB00513A462846FCF78CFF6421B0FB8D
:1032B000F1F00AEB001A04206168A0FB01510B46F3
:1032C0001920A9FB00712A463846FCF77BFF83468C
:1032D00004206168A0FB015003461920A9FB00707F
:1032E00001462A463846FCF76DFF6421B0FBF1F039
:1032F00000EBC00101EB0010ABEB8000322101EBD1
:1033000000106421B0FBF1F000F00F005044216880
:103310008860BDE8F88F00000010014000140140F3
:1033200010B5034699629A85DA8500201864222038
:1033300083F83E0000BF002083F83C0000BF1869FE
:1033400028B11868C06840F480701C68E060186894
:10335000406940F001001C6860611868C06840F076
:1033600020001C68E060002010BD014691F83D007F
:10337000212828D18868B0F5805F0BD1086948B949
:103380000A6A1088C0F308000B685860086A801C3D
:10339000086205E00B6A581C086218780B685860D0
:1033A000C88C401E80B2C88458B90868C06820F034
:1033B00080000B68D8600868C06840F040000B6867
:1033C000D860002070470220FCE72DE9F041044658
:1033D0000D4617469846069E34E0701C88B32EB101
:1033E000FDF7F4FDA0EB0800B0422BD900BF00BFF1
:1033F00021680C3151E8001F21F4D07021680C3194
:1034000041E80002002AF3D100BF00BF00BF2168DD
:10341000143151E8001F21F001002168143141E806
:103420000002002AF3D100BF202084F83D0084F878
:103430003E0000BF002084F83C0000BF0320BDE830
:10344000F081FFE7206800682840A84201D10120F0
:1034500000E00020B842C0D00020F0E710B50248DC
:10346000FEF71CFE10BD00005804002010B50248F5
:10347000FEF714FE10BD00009C04002010B50248A9
:10348000FEF70CFE10BD0000E004002000BFFEE7C8
:10349000014A024900F02FB85935000834000020D5
:1034A00002480068C0F30220704700000CED00E005
:1034B00010B5002804DB0A07130E054A135406E072
:1034C0000A07140E034A00F00F031B1FD45410BD4B
:1034D00000E400E018ED00E002E008C8121F08C197
:1034E000002AFAD170477047002001E001C1121F85
:1034F000002AFBD170472DE9F04116460F460446DD
:10350000002503E03946B047641C6D1C2078002874
:10351000F8D12846BDE8F08110B5044600200C49DA
:1035200088610120C8610020086048608860C86028
:1035300008614861012008622046FCF799FF0548B0
:10354000FDF78DFB02210348FCF7D2FE10BD000001
:10355000C80000204401002013B50C464FF47A73D4
:10356000012269460248FFF759F800981CBD000087
:1035700058040020014601F00300024A02EBC0009B
:103580007047000024010020FDF732FDFCF798FE93
:10359000FFF7ECFAFFF7D2F8FFF7ACF8FFF79EF968
:1035A000FFF7ECF9FFF706FAFFF720FAFFF75EF9ED
:1035B000012207490748FEF7EDFF0748FFF7ACFF78
:1035C0000648FEF759FA01E0FFF7B2FAFCE70000FF
:1035D0002E0000209C04002044010020380200201E
:1035E00010B5024600210FE0C1EBC10402F1400317
:1035F00003EB8400B7EE001AF0EE080A9FED040A10
:10360000FFF714FA481CC1B20429EDDB10BD00001D
:103610000000964310B54FF48071F548FDF7CEFCDD
:1036200038B90120F3490870F3480078401CF2498A
:103630000870F048007801282AD10421EC48FDF7F1
:10364000BDFC30BB0821EA48FDF7B8FC012820D1B9
:103650001021E748FDF7B2FC01281AD12021E448E7
:10366000FDF7ACFC012814D14021E148FDF7A6FC90
:1036700001280ED18021DE48FDF7A0FC012808D1E9
:10368000BBEE080ADD4880ED000ADDA0FFF700FF71
:10369000ACE10421D648FDF791FC28BB0821D448B1
:1036A000FDF78CFC00BB1021D148FDF787FC0128F9
:1036B0001AD12021CE48FDF781FC012814D14021E8
:1036C000CB48FDF77BFC01280ED18021C848FDF7CF
:1036D00075FC012808D19FEDCB0AC84880ED000A8F
:1036E000C9A0FFF7D5FE81E10421C148FDF766FCC2
:1036F000012824D10821BE48FDF760FCF8B910214B
:10370000BB48FDF75BFCD0B92021B948FDF756FC5A
:10371000012814D14021B648FDF750FC01280ED1F4
:103720008021B348FDF74AFC012808D19FEDB50A76
:10373000B24880ED000AB5A0FFF7AAFE56E10421C9
:10374000AB48FDF73BFC20BB0821A948FDF736FC40
:10375000F8B91021A648FDF731FCD0B92021A448C2
:10376000FDF72CFC012814D14021A148FDF726FCCF
:1037700001280ED180219E48FDF720FC012808D1A8
:103780009FEDA00A9D4880ED000AA0A0FFF780FEF3
:103790002CE104219648FDF711FC012823D10821D2
:1037A0009348FDF70BFCF0B910219148FDF706FC9A
:1037B000C8B920218E48FDF701FCA0B940218C48F2
:1037C000FDF7FCFB01280ED180218948FDF7F6FBAF
:1037D000012808D19FED8E0A884880ED000A8DA04F
:1037E000FFF756FE02E104218148FDF7E7FB0128BF
:1037F00027D108217E48FDF7E1FB012821D11021C6
:103800007B48FDF7DBFBE0B920217948FDF7D6FBCB
:10381000B8B940217648FDF7D1FB012811D18021AC
:103820007348FDF7CBFB01280BD1BBEE000A7348B0
:1038300080ED000A78A0FFF72BFE01207749087081
:10384000D4E004216A48FDF7B9FB012823D10821FF
:103850006748FDF7B3FB01281DD110216448FDF72F
:10386000ADFBC0B920216248FDF7A8FB98B9402103
:103870005F48FDF7A3FB70B980215D48FDF79EFB13
:10388000012808D19FED660A5C4880ED000A65A01A
:10389000FFF7FEFDAAE004215548FDF78FFB012844
:1038A00024D108215248FDF789FB01281ED110219F
:1038B0004F48FDF783FB012818D120214C48FDF724
:1038C0007DFB98B940214A48FDF778FB70B980210B
:1038D0004748FDF773FB012808D19FED530A47487D
:1038E00080ED000A51A0FFF7D3FD7FE0042140489E
:1038F000FDF764FB012823D108213D48FDF75EFB5D
:1039000001281DD110213A48FDF758FB012817D195
:1039100020213748FDF752FB90B940213448FDF78C
:103920004DFB68B980213248FDF748FB40B99FED57
:103930003E0A324880ED000A3CA0FFF7A9FD55E0A1
:1039400004212B48FDF73AFB012824D108212848FF
:10395000FDF734FB01281ED110212548FDF72EFB71
:10396000012818D120212248FDF728FB012812D177
:1039700040211F48FDF722FB68B980211C48FDF754
:103980001DFB40B99FED280A1C4880ED000A28A0C5
:10399000FFF77EFD2AE004211548FDF70FFB012803
:1039A00024D108211248FDF709FB01281ED110215E
:1039B0000F48FDF703FB012818D120210C48FDF723
:1039C000FDFA012812D140210948FDF7F7FA012834
:1039D0000CD180210648FDF7F1FA38B99FED150AA0
:1039E000064880ED000A14A0FFF752FD10BD00004C
:1039F00000140240180000202B0000201C000020B2
:103A0000310000003333B3C1320000003300000046
:103A10009A9999C134000000350000002000002070
:103A2000666666C136000000CDCC4CC13700000090
:103A300038000000333333C1390000002DE9F04174
:103A400007460C4615461E464FF400700E490860A6
:103A500000208860C8600820086100200875380AC6
:103A60000A4908704F70200A8870CC70280A0871C3
:103A70004D71300A8871CE71054B0A4602490548DE
:103A8000FCF74BFCBDE8F081F000002000000020B6
:103A90001000002044010020000000000000000091
:103AA00001020304060708090000000001020304E4
:103AB000D03A00080000002048000000D834000878
:103AC000183B000848000020E0080000E834000827
:103AD00000000000000000000000000000000000E6
:103AE00000000000000000000000000000000000D6
:103AF00000010405080300000000000100000000B0
:103B000000000000000000000000000010000000A5
:083B1000010000000024F40094
:040000050800018965
:00000001FF
